{
  "_format": "hh-sol-artifact-1",
  "contractName": "VoiceCommitmentVerifier",
  "sourceName": "contracts/VoiceCommitmentVerifier.sol",
  "abi": [
    {
      "inputs": [
        {
          "internalType": "uint256[2]",
          "name": "a",
          "type": "uint256[2]"
        },
        {
          "internalType": "uint256[2][2]",
          "name": "b",
          "type": "uint256[2][2]"
        },
        {
          "internalType": "uint256[2]",
          "name": "c",
          "type": "uint256[2]"
        },
        {
          "internalType": "uint256[1]",
          "name": "input",
          "type": "uint256[1]"
        }
      ],
      "name": "verifyProof",
      "outputs": [
        {
          "internalType": "bool",
          "name": "r",
          "type": "bool"
        }
      ],
      "stateMutability": "view",
      "type": "function"
    }
  ],
  "bytecode": "0x608060405234601c57600e6020565b6120a661002b82396120a690f35b6026565b60405190565b5f80fdfe60806040526004361015610013575b610317565b61001d5f3561002c565b6343753b4d0361000e576102de565b60e01c90565b60405190565b5f80fd5b5f80fd5b5f80fd5b601f801991011690565b634e487b7160e01b5f52604160045260245ffd5b9061006c90610044565b810190811067ffffffffffffffff82111761008657604052565b61004e565b9061009e610097610032565b9283610062565b565b67ffffffffffffffff81116100b55760200290565b61004e565b5f80fd5b90565b6100ca816100be565b036100d157565b5f80fd5b905035906100e2826100c1565b565b909291926100f96100f4826100a0565b61008b565b93602085920283019281841161013157915b8383106101185750505050565b6020809161012684866100d5565b81520192019161010b565b6100ba565b9080601f830112156101515761014e916002906100e4565b90565b610040565b67ffffffffffffffff811161016b5760200290565b61004e565b9092919261018561018082610156565b61008b565b9360408592028301928184116101be57915b8383106101a45750505050565b60206040916101b38486610136565b815201920191610197565b6100ba565b9080601f830112156101de576101db91600290610170565b90565b610040565b67ffffffffffffffff81116101f85760200290565b61004e565b9092919261021261020d826101e3565b61008b565b93602085920283019281841161024a57915b8383106102315750505050565b6020809161023f84866100d5565b815201920191610224565b6100ba565b9080601f8301121561026a57610267916001906101fd565b90565b610040565b610120818303126102b257610286825f8301610136565b926102af61029784604085016101c3565b936102a58160c08601610136565b936101000161024f565b90565b61003c565b151590565b6102c5906102b7565b9052565b91906102dc905f602085019401906102bc565b565b346103125761030e6102fd6102f436600461026f565b929190916105b3565b610305610032565b918291826102c9565b0390f35b610038565b5f80fd5b5f90565b610329606061008b565b90565b610336604061008b565b90565b5f90565b61034561032c565b9060208083610352610339565b81520161035d610339565b81525050565b61036b61033d565b90565b610378604061008b565b90565b61038761038c916100a0565b61008b565b90565b369037565b906103b26103a18361037b565b926103ac84916100a0565b9061038f565b565b6103be6002610394565b90565b6103c961036e565b90602080836103d66103b4565b8152016103e16103b4565b81525050565b6103ef6103c1565b90565b6103fa61031f565b906020808084610408610363565b8152016104136103e7565b81520161041e610363565b81525050565b61042c6103f2565b90565b634e487b7160e01b5f52603260045260245ffd5b50600290565b9061045382610443565b811015610461576020020190565b61042f565b90565b90565b61048061047b61048592610466565b610469565b6100be565b90565b61049290516100be565b90565b90565b6104ac6104a76104b192610495565b610469565b6100be565b90565b6104be604061008b565b90565b906104cb906100be565b9052565b50600290565b906104df826104cf565b8110156104ed576020020190565b61042f565b6104fc604061008b565b90565b52565b50600190565b67ffffffffffffffff81116105205760208091020190565b61004e565b9061053761053283610508565b61008b565b918252565b9061056161054983610525565b926020806105578693610508565b920191039061038f565b565b600161056f91016100be565b90565b9061057c82610502565b81101561058a576020020190565b61042f565b5190565b9061059d8261058f565b8110156105ae576020809102010190565b61042f565b9291906105be61031b565b506105c7610424565b9361061f6106026105fd6105ec6105e7856105e15f61046c565b90610449565b610488565b936105f76001610498565b90610449565b610488565b61061661060d6104b4565b935f85016104c1565b602083016104c1565b5f850152610742610630600261037b565b9161066a61066261065d61064d846106475f61046c565b906104d5565b516106575f61046c565b90610449565b610488565b5f85016104c1565b6106a561069c610697610686846106805f61046c565b906104d5565b516106916001610498565b90610449565b610488565b602085016104c1565b61072561071c6107176107066106bb600261037b565b946106f66106ee6106e96106d9846106d36001610498565b906104d5565b516106e35f61046c565b90610449565b610488565b5f88016104c1565b6107006001610498565b906104d5565b516107116001610498565b90610449565b610488565b602083016104c1565b6107396107306104f2565b935f85016104ff565b602083016104ff565b602084015261079e61078161077c61076b610766856107605f61046c565b90610449565b610488565b936107766001610498565b90610449565b610488565b61079561078c6104b4565b935f85016104c1565b602083016104c1565b60408301526107b46107af82610502565b61053c565b926107be5f61046c565b5b806107da6107d46107cf86610502565b6100be565b916100be565b1015610816576108119061080c6107fa6107f5868490610572565b610488565b6108078891849092610593565b6104c1565b610563565b6107bf565b50926108239291506109d2565b61083561082f5f61046c565b916100be565b145f1461084157600190565b5f90565b5f90565b90565b61086061085b61086592610849565b610469565b6100be565b90565b634e487b7160e01b5f52601160045260245ffd5b61088b610891919392936100be565b926100be565b820180921161089c57565b610868565b5190565b60209181520190565b5f7f76657269666965722d6261642d696e7075740000000000000000000000000000910152565b6108e260126020926108a5565b6108eb816108ae565b0190565b6109049060208101905f8183039101526108d5565b90565b1561090e57565b610916610032565b62461bcd60e51b81528061092c600482016108ef565b0390fd5b5f7f76657269666965722d6774652d736e61726b2d7363616c61722d6669656c6400910152565b610964601f6020926108a5565b61096d81610930565b0190565b6109869060208101905f818303910152610957565b90565b1561099057565b610998610032565b62461bcd60e51b8152806109ae60048201610971565b0390fd5b906109bc826108a1565b8110156109cd576020809102010190565b61042f565b916109db610845565b50610a057f30644e72e131a029b85045b68181585d2833e84879b9709143e1f593f000000161084c565b92610a0e610eef565b91610a52610a2e610a1e8461058f565b610a286001610498565b9061087c565b610a4c610a46610a4160808801516108a1565b6100be565b916100be565b14610907565b5f610a84610a7b5f610a76610a6e610a686104b4565b9561046c565b5f86016104c1565b61046c565b602083016104c1565b90610a8e5f61046c565b915b82610aab610aa5610aa08761058f565b6100be565b916100be565b1015610b3757610b2b610b3191610ae6610ace610ac9888890610593565b610488565b610ae0610ada8c6100be565b916100be565b10610989565b610b25610b0b6080890151610b0588610aff6001610498565b9061087c565b906109b2565b51610b1f610b1a898990610593565b610488565b906114f4565b906116bc565b92610563565b91610a90565b610b67919650610ba0959350610b9a949250610b606080840151610b5a5f61046c565b906109b2565b51906116bc565b91610b745f820151611810565b926020820151905f840151602085015191926060604080880151960151960151966119d6565b156102b7565b610bb057610bad5f61046c565b90565b610bba6001610498565b90565b610bc760a061008b565b90565b606090565b610bd7610bbd565b9060208080808086610be7610363565b815201610bf26103e7565b815201610bfd6103e7565b815201610c086103e7565b815201610c13610bca565b81525050565b610c21610bcf565b90565b90565b610c3b610c36610c4092610c24565b610469565b6100be565b90565b90565b610c5a610c55610c5f92610c43565b610469565b6100be565b90565b90565b610c79610c74610c7e92610c62565b610469565b6100be565b90565b90565b610c98610c93610c9d92610c81565b610469565b6100be565b90565b90565b610cb7610cb2610cbc92610ca0565b610469565b6100be565b90565b90565b610cd6610cd1610cdb92610cbf565b610469565b6100be565b90565b90565b610cf5610cf0610cfa92610cde565b610469565b6100be565b90565b90565b610d14610d0f610d1992610cfd565b610469565b6100be565b90565b90565b610d33610d2e610d3892610d1c565b610469565b6100be565b90565b90565b610d52610d4d610d5792610d3b565b610469565b6100be565b90565b90565b610d71610d6c610d7692610d5a565b610469565b6100be565b90565b90565b610d90610d8b610d9592610d79565b610469565b6100be565b90565b90565b610daf610daa610db492610d98565b610469565b6100be565b90565b90565b610dce610dc9610dd392610db7565b610469565b6100be565b90565b90565b610ded610de8610df292610dd6565b610469565b6100be565b90565b67ffffffffffffffff8111610e0d5760208091020190565b61004e565b90610e24610e1f83610df5565b61008b565b918252565b5f5b828110610e3757505050565b602090610e42610363565b8184015201610e2b565b90610e71610e5983610e12565b92602080610e678693610df5565b9201910390610e29565b565b90565b610e8a610e85610e8f92610e73565b610469565b6100be565b90565b90565b610ea9610ea4610eae92610e92565b610469565b6100be565b90565b90565b610ec8610ec3610ecd92610eb1565b610469565b6100be565b90565b90565b610ee7610ee2610eec92610ed0565b610469565b6100be565b90565b610ef7610c19565b907f2d4d9aa7e302d9df41749d5507949d05dbea33fbb16c643b22f599a2be6df2e2610f6a610f617f14bedd503c37ceb061d8ec60209fe345ce89830a19230301f076caff004d1926610f5c610f54610f4e6104b4565b95610c27565b5f86016104c1565b610c46565b602083016104c1565b5f830152610f78600261037b565b610fac610fa47f0967032fcbf776d1afc985f88877f182d38480a653f2decaa9794cbc3bf3060c610c65565b5f83016104c1565b610fe1610fd87f0e187847ad4c798374d0d6732bf501847dd68bc0e071241e0213bc7fc13db7ab610c84565b602083016104c1565b611074610fee600261037b565b61102261101a7f304cfbd1e08a704a99f5e847d93f8c3caafddec46b7a0d379da69a4d112346a7610ca3565b5f83016104c1565b61105761104e7f1739c1b1a457a8c7313123d24d2f9192f896b7c63eea05a9d57f06547ad0cec8610cc2565b602083016104c1565b61106b6110626104f2565b935f85016104ff565b602083016104ff565b6020830152611083600261037b565b6110b76110af7f198e9393920d483a7260bfb731fb5d25f1aa493335a9e71297e485b7aef312c2610ce1565b5f83016104c1565b6110ec6110e37f1800deef121f1e76426a00665e5c4479674322d4f75edadd46debd5cd992f6ed610d00565b602083016104c1565b61117f6110f9600261037b565b61112d6111257f090689d0585ff075ec9e99ad690c3395bc4b313370b38ef355acdadcd122975b610d1f565b5f83016104c1565b6111626111597f12c85ea5db8c6deb4aab71808dcb408fe3d1e7690c43d37b4ce6cc0166fa7daa610d3e565b602083016104c1565b61117661116d6104f2565b935f85016104ff565b602083016104ff565b604083015261118e600261037b565b6111c26111ba7f143170afcb1afbb793d0a0703b16acece12187fcb4ae9d86778b2f379d03cba1610d5d565b5f83016104c1565b6111f76111ee7f2e76060eb57bf41c4e1dc4b820570098e9072bb498dd749f4b89eecdf1730e6b610d7c565b602083016104c1565b61128a611204600261037b565b6112386112307f273746f0f4100c6b9378fe1f71643cc188a4889a0ccdb41f452d6cee760b5e39610d9b565b5f83016104c1565b61126d6112647f2939575b42108d457adb286eadb957a7f4338f1c96998d08ba0e62825a971d02610dba565b602083016104c1565b6112816112786104f2565b935f85016104ff565b602083016104ff565b60608301526112a161129c6002610dd9565b610e4c565b60808301526113447f16a05de4903e78678fd435b0c6d88412b07457200d69caa46ea5fb6f8b4e391761131b6113127f1add9fa25d3ec37d7726a8b6a000ed62b8f871fe0bec98692f8983988d2fa65861130d6113056112ff6104b4565b95610e76565b5f86016104c1565b610e95565b602083016104c1565b61133e6080850151915f906113386113328361046c565b856109b2565b5261046c565b906109b2565b51506113e57f12acc8b8eaad0cf13c11718a05d670cc3ddf9f03f9808703f449ec69d6f22ca36113bb6113b27f18f1c9b14e1a48119706c8504e97e32d191e4e7b95b89c1ff4eefe934f2a1fec6113ad6113a561139f6104b4565b95610eb4565b5f86016104c1565b610ed3565b602083016104c1565b6113df6080850151916001906113d96113d383610498565b856109b2565b52610498565b906109b2565b5150565b6113f161033d565b90565b67ffffffffffffffff81116114095760200290565b61004e565b61141a61141f916113f4565b61008b565b90565b9061144061142f8361140e565b9261143a84916113f4565b9061038f565b565b61144c6003611422565b90565b50600390565b9061145f8261144f565b81101561146d576020020190565b61042f565b5f7f70616972696e672d6d756c2d6661696c65640000000000000000000000000000910152565b6114a660126020926108a5565b6114af81611472565b0190565b6114c89060208101905f818303910152611499565b90565b156114d257565b6114da610032565b62461bcd60e51b8152806114f0600482016114b3565b0390fd5b611578929160806060926115066113e9565b95869361155f6115466020611519611442565b956115406115285f8301610488565b61153b896115355f61046c565b90611455565b6104c1565b01610488565b61155a856115546001610498565b90611455565b6104c1565b6115738361156d6002610dd9565b90611455565b6104c1565b61158061031b565b5060076107d05a03fa805f1461159b57611599906114cb565b565bfe5b67ffffffffffffffff81116115b25760200290565b61004e565b6115c36115c89161159d565b61008b565b90565b906115e96115d8836115b7565b926115e3849161159d565b9061038f565b565b6115f560046115cb565b90565b50600490565b90611608826115f8565b811015611616576020020190565b61042f565b90565b61163261162d6116379261161b565b610469565b6100be565b90565b5f7f70616972696e672d6164642d6661696c65640000000000000000000000000000910152565b61166e60126020926108a5565b6116778161163a565b0190565b6116909060208101905f818303910152611661565b90565b1561169a57565b6116a2610032565b62461bcd60e51b8152806116b86004820161167b565b0390fd5b6020929160c06060926117716117586116d36113e9565b97889561172b611712836116e56115eb565b9761170c6116f45f8301610488565b6117078b6117015f61046c565b906115fe565b6104c1565b01610488565b611726876117206001610498565b906115fe565b6104c1565b6117526117395f8301610488565b61174d876117476002610dd9565b906115fe565b6104c1565b01610488565b61176c83611766600361161e565b906115fe565b6104c1565b61177961031b565b5060066107d05a03fa805f146117945761179290611693565b565bfe5b90565b6117ad6117a86117b292611796565b610469565b6100be565b90565b634e487b7160e01b5f52601260045260245ffd5b6117d56117db916100be565b916100be565b9081156117e6570690565b6117b5565b6117fa611800919392936100be565b926100be565b820391821161180b57565b610868565b6118186113e9565b506118427f30644e72e131a029b85045b68181585d97816a916871ca8d3c208c16d87cfd47611799565b9061184e5f8201610488565b61186061185a5f61046c565b916100be565b14806118f0575b6118b957611899816118936118805f6118b69501610488565b9461188e6020829401610488565b6117c9565b906117eb565b6118ad6118a46104b4565b935f85016104c1565b602083016104c1565b90565b50505f6118ed6118e45f6118df6118d76118d16104b4565b9561046c565b5f86016104c1565b61046c565b602083016104c1565b90565b506118fd60208201610488565b61190f6119095f61046c565b916100be565b14611867565b90565b61192c61192761193192611915565b610469565b6100be565b90565b67ffffffffffffffff811161194c5760208091020190565b61004e565b9061196361195e83611934565b61008b565b918252565b5f5b82811061197657505050565b6020906119816103e7565b818401520161196a565b906119b061199883611951565b926020806119a68693611934565b9201910390611968565b565b5190565b906119c0826119b2565b8110156119d1576020809102010190565b61042f565b969493959091956119e561031b565b5060046119f190611918565b6119fa90610e4c565b966004611a0690611918565b611a0f9061198b565b9888905f90611a1d8261046c565b611a2790846109b2565b52611a319061046c565b611a3a916109b2565b51508790600190611a4a82610498565b611a5490846109b2565b52611a5e90610498565b611a67916109b2565b51508690600290611a7782610dd9565b611a8190846109b2565b52611a8b90610dd9565b611a94916109b2565b51508590600390611aa48261161e565b611aae90846109b2565b52611ab89061161e565b611ac1916109b2565b515085905f90611ad08261046c565b611ada90846119b6565b52611ae49061046c565b611aed916119b6565b51508490600190611afd82610498565b611b0790846119b6565b52611b1190610498565b611b1a916119b6565b51508390600290611b2a82610dd9565b611b3490846119b6565b52611b3e90610dd9565b611b47916119b6565b51508290600390611b578261161e565b611b6190846119b6565b52611b6b9061161e565b611b74916119b6565b515090611b8091611d3b565b90565b5f7f70616972696e672d6c656e677468732d6661696c656400000000000000000000910152565b611bb760166020926108a5565b611bc081611b83565b0190565b611bd99060208101905f818303910152611baa565b90565b15611be357565b611beb610032565b62461bcd60e51b815280611c0160048201611bc4565b0390fd5b90565b611c1c611c17611c2192611c05565b610469565b6100be565b90565b611c33611c39919392936100be565b926100be565b91611c458382026100be565b928184041490151715611c5457565b610868565b90565b611c70611c6b611c7592611c59565b610469565b6100be565b90565b611c84611c89916101e3565b61008b565b90565b90611caa611c9983611c78565b92611ca484916101e3565b9061038f565b565b611cb66001611c8c565b90565b5f7f70616972696e672d6f70636f64652d6661696c65640000000000000000000000910152565b611ced60156020926108a5565b611cf681611cb9565b0190565b611d0f9060208101905f818303910152611ce0565b90565b15611d1957565b611d21610032565b62461bcd60e51b815280611d3760048201611cfa565b0390fd5b90611d4461031b565b50611d71611d51836108a1565b611d6b611d65611d60856119b2565b6100be565b916100be565b14611bdc565b611d7a826108a1565b91611d8f83611d896006611c08565b90611c24565b93611d998561053c565b94611da35f61046c565b5b80611db7611db1886100be565b916100be565b101561200157611ffc90611e11611dda5f611dd38885906109b2565b5101610488565b611e0c8a91611e05611df686611df06006611c08565b90611c24565b611dff5f61046c565b9061087c565b9092610593565b6104c1565b611e63611e2b6020611e248885906109b2565b5101610488565b611e5e8a91611e57611e4786611e416006611c08565b90611c24565b611e516001610498565b9061087c565b9092610593565b6104c1565b611ec7611e8f611e8a5f611e788a86906119b6565b510151611e845f61046c565b90610449565b610488565b611ec28a91611ebb611eab86611ea56006611c08565b90611c24565b611eb56002610dd9565b9061087c565b9092610593565b6104c1565b611f2c611ef4611eef5f611edc8a86906119b6565b510151611ee96001610498565b90610449565b610488565b611f278a91611f20611f1086611f0a6006611c08565b90611c24565b611f1a600361161e565b9061087c565b9092610593565b6104c1565b611f91611f59611f546020611f428a86906119b6565b510151611f4e5f61046c565b90610449565b610488565b611f8c8a91611f85611f7586611f6f6006611c08565b90611c24565b611f7f6004611918565b9061087c565b9092610593565b6104c1565b611ff7611fbf611fba6020611fa78a86906119b6565b510151611fb46001610498565b90610449565b610488565b611ff28a91611feb611fdb86611fd56006611c08565b90611c24565b611fe56005611c5c565b9061087c565b9092610593565b6104c1565b610563565b611da4565b509150936020935083925082612015611cac565b94859361202061031b565b5002910160086107d05a03fa805f1461206e576120579161204361205292611d12565b61204c5f61046c565b90610572565b610488565b6120696120635f61046c565b916100be565b141590565bfefea26469706673582212206c40c066b978320115c956ede938c3e2df048c5cd963fc3b623b0149e54074a364736f6c634300081c0033",
  "linkReferences": {},
  "deployedLinkReferences": {}
}