{
  "_format": "hh-sol-artifact-1",
  "contractName": "VoiceWalletFactory",
  "sourceName": "contracts/VoiceWalletFactory.sol",
  "abi": [
    {
      "inputs": [
        {
          "internalType": "address",
          "name": "anEntryPoint",
          "type": "address"
        }
      ],
      "stateMutability": "nonpayable",
      "type": "constructor"
    },
    {
      "inputs": [],
      "name": "InvalidEntryPoint",
      "type": "error"
    },
    {
      "inputs": [],
      "name": "InvalidOwner",
      "type": "error"
    },
    {
      "inputs": [],
      "name": "InvalidVerifier",
      "type": "error"
    },
    {
      "anonymous": false,
      "inputs": [
        {
          "indexed": true,
          "internalType": "address",
          "name": "wallet",
          "type": "address"
        },
        {
          "indexed": true,
          "internalType": "bytes32",
          "name": "voiceCommitment",
          "type": "bytes32"
        },
        {
          "indexed": true,
          "internalType": "bytes32",
          "name": "salt",
          "type": "bytes32"
        }
      ],
      "name": "VoiceWalletCreated",
      "type": "event"
    },
    {
      "inputs": [
        {
          "internalType": "address",
          "name": "owner",
          "type": "address"
        },
        {
          "internalType": "address",
          "name": "verifier",
          "type": "address"
        },
        {
          "internalType": "bytes32",
          "name": "voiceCommitment",
          "type": "bytes32"
        },
        {
          "internalType": "bytes32",
          "name": "salt",
          "type": "bytes32"
        }
      ],
      "name": "createWallet",
      "outputs": [
        {
          "internalType": "address",
          "name": "wallet",
          "type": "address"
        }
      ],
      "stateMutability": "nonpayable",
      "type": "function"
    },
    {
      "inputs": [],
      "name": "entryPoint",
      "outputs": [
        {
          "internalType": "contract IEntryPoint",
          "name": "",
          "type": "address"
        }
      ],
      "stateMutability": "view",
      "type": "function"
    },
    {
      "inputs": [
        {
          "internalType": "address",
          "name": "owner",
          "type": "address"
        },
        {
          "internalType": "address",
          "name": "verifier",
          "type": "address"
        },
        {
          "internalType": "bytes32",
          "name": "voiceCommitment",
          "type": "bytes32"
        },
        {
          "internalType": "bytes32",
          "name": "salt",
          "type": "bytes32"
        }
      ],
      "name": "getAddress",
      "outputs": [
        {
          "internalType": "address",
          "name": "",
          "type": "address"
        }
      ],
      "stateMutability": "view",
      "type": "function"
    },
    {
      "inputs": [],
      "name": "walletImplementation",
      "outputs": [
        {
          "internalType": "address",
          "name": "",
          "type": "address"
        }
      ],
      "stateMutability": "view",
      "type": "function"
    }
  ],
  "bytecode": "0x60c06040523461005d57610019610014610122565b610219565b610021610062565b6110116102c082396080518181816102140152818161057d01526107d5015260a051818181610182015281816105f50152610830015261101190f35b610068565b60405190565b5f80fd5b601f801991011690565b634e487b7160e01b5f52604160045260245ffd5b906100949061006c565b810190811060018060401b038211176100ac57604052565b610076565b906100c46100bd610062565b928361008a565b565b5f80fd5b60018060a01b031690565b6100de906100ca565b90565b6100ea816100d5565b036100f157565b5f80fd5b90505190610102826100e1565b565b9060208282031261011d5761011a915f016100f5565b90565b6100c6565b61014061462f80380380610135816100b1565b928339810190610104565b90565b90565b90565b61015d61015861016292610143565b610146565b6100ca565b90565b61016e90610149565b90565b5f0190565b61018a61018561018f926100ca565b610146565b6100ca565b90565b61019b90610176565b90565b6101a790610192565b90565b6101b3906100d5565b90565b6101c090516101aa565b90565b6101cc90610176565b90565b6101d8906101c3565b90565b6101e4906101cf565b9052565b91906101fb905f602085019401906101db565b565b610205610062565b3d5f823e3d90fd5b610216906101c3565b90565b8061023461022e6102295f610165565b6100d5565b916100d5565b146102a3576102429061019e565b60805261024f60806101b6565b610257610062565b9061335e820182811060018060401b0382111761029e5782916102819161335e6112d185396101e8565b03905ff08015610299576102949061020d565b60a052565b6101fd565b610076565b5f632039d3c960e01b8152806102bb60048201610171565b0390fdfe60806040526004361015610013575b6102c4565b61001d5f3561005c565b80637439bf84146100575780638117abc11461005257806390b2ac691461004d5763b0d691fe0361000e5761028f565b6101d9565b6101a4565b610138565b60e01c90565b60405190565b5f80fd5b5f80fd5b60018060a01b031690565b61008490610070565b90565b6100908161007b565b0361009757565b5f80fd5b905035906100a882610087565b565b90565b6100b6816100aa565b036100bd57565b5f80fd5b905035906100ce826100ad565b565b608081830312610111576100e6825f830161009b565b9261010e6100f7846020850161009b565b9361010581604086016100c1565b936060016100c1565b90565b61006c565b61011f9061007b565b9052565b9190610136905f60208501940190610116565b565b3461016c5761016861015761014e3660046100d0565b92919091610558565b61015f610062565b91829182610123565b0390f35b610068565b5f91031261017b57565b61006c565b7f000000000000000000000000000000000000000000000000000000000000000090565b346101d4576101b4366004610171565b6101d06101bf610180565b6101c7610062565b91829182610123565b0390f35b610068565b3461020d576102096101f86101ef3660046100d0565b92919091610755565b610200610062565b91829182610123565b0390f35b610068565b7f000000000000000000000000000000000000000000000000000000000000000090565b90565b61024d61024861025292610070565b610236565b610070565b90565b61025e90610239565b90565b61026a90610255565b90565b61027690610261565b9052565b919061028d905f6020850194019061026d565b565b346102bf5761029f366004610171565b6102bb6102aa610212565b6102b2610062565b9182918261027a565b0390f35b610068565b5f80fd5b5f90565b6102d5906100aa565b9052565b61030e610315946103046060949897956102fa608086019a5f870190610116565b6020850190610116565b6040830190610116565b01906102cc565b565b601f801991011690565b634e487b7160e01b5f52604160045260245ffd5b9061033f90610317565b810190811067ffffffffffffffff82111761035957604052565b610321565b9061037161036a610062565b9283610335565b565b5190565b60209181520190565b90825f9392825e0152565b6103aa6103b36020936103b8936103a181610373565b93848093610377565b95869101610380565b610317565b0190565b916103df926103d260408201935f830190610116565b602081840391015261038b565b90565b905090565b61040c610403926020926103fa81610373565b948580936103e2565b93849101610380565b0190565b61041e9061042493926103e7565b906103e7565b90565b90565b60ff60f81b1690565b60f81b90565b61044d61044861045292610427565b610433565b61042a565b90565b61045e90610255565b90565b60200190565b90565b61047661047b9161042a565b610467565b9052565b60601b90565b61048e9061047f565b90565b61049a90610485565b90565b6104a96104ae9161007b565b610491565b9052565b90565b6104c16104c6916100aa565b6104b2565b9052565b926104f86014610500946104f06001886104e860209b9a8c9961046a565b01809261049d565b0180926104b5565b0180926104b5565b0190565b5f1c90565b90565b61052061051b61052592610509565b610236565b610509565b90565b61053461053991610504565b61050c565b90565b61055061054b61055592610509565b610236565b610070565b90565b926106b06106c8926105d26106cd956105c36106d2986105766102c8565b50916105a17f0000000000000000000000000000000000000000000000000000000000000000610261565b946105aa610062565b9586946004602087016363acc14d60e01b8152016102d9565b60208201810382520382610335565b6106606106a26105e46020820161035e565b9080825261093a602083013961063a7f000000000000000000000000000000000000000000000000000000000000000061062b61061f610062565b958692602084016103bc565b60208201810382520384610335565b610651610645610062565b93849260208401610410565b60208201810382520382610335565b6106a161066d60ff610439565b9161067730610455565b949061068b61068582610373565b91610461565b2090610695610062565b958694602086016104ca565b60208201810382520382610335565b6106c26106bc82610373565b91610461565b20610528565b61053c565b610255565b90565b90565b6106ec6106e76106f1926106d5565b610236565b610070565b90565b6106fd906106d8565b90565b5f0190565b61071961071461071e926106d5565b610236565b610509565b90565b610729610062565b3d5f823e3d90fd5b61073a90610255565b90565b61074690610255565b90565b610752906100aa565b90565b9392936107606102c8565b508061077c6107766107715f6106f4565b61007b565b9161007b565b1461091d578161079c6107966107915f6106f4565b61007b565b9161007b565b14610901576107af818385908892610558565b803b6107c36107bd5f610705565b91610509565b116108f8575061082c9061081d6107f97f0000000000000000000000000000000000000000000000000000000000000000610261565b938590610804610062565b9586946004602087016363acc14d60e01b8152016102d9565b60208201810382520382610335565b83907f0000000000000000000000000000000000000000000000000000000000000000610857610062565b916106a283019083821067ffffffffffffffff8311176108f3578392610884926106a261093a86396103bc565b03905ff580156108ee5761089790610731565b9283916108d66108d06108ca7fb2cbbc2a4a0896ce7188184d93851a13003f28ec206472e42c16c27caac4b1439561073d565b92610749565b92610749565b926108df610062565b806108e981610700565b0390a4565b610721565b610321565b93945050505090565b5f63baa3de5f60e01b81528061091960048201610700565b0390fd5b5f6349e27cff60e01b81528061093560048201610700565b0390fdfe608060405261001561000f61019d565b906101f2565b61001d61002b565b61010c610596823961010c90f35b60405190565b601f801991011690565b634e487b7160e01b5f52604160045260245ffd5b9061005990610031565b810190811060018060401b0382111761007157604052565b61003b565b9061008961008261002b565b928361004f565b565b5f80fd5b5f80fd5b60018060a01b031690565b6100a790610093565b90565b6100b38161009e565b036100ba57565b5f80fd5b905051906100cb826100aa565b565b5f80fd5b5f80fd5b60018060401b0381116100f1576100ed602091610031565b0190565b61003b565b90825f9392825e0152565b90929192610116610111826100d5565b610076565b9381855260208501908284011161013257610130926100f6565b565b6100d1565b9080601f830112156101555781602061015293519101610101565b90565b6100cd565b91909160408184031261019857610173835f83016100be565b92602082015160018060401b038111610193576101909201610137565b90565b61008f565b61008b565b6101bb6106a2803803806101b081610076565b92833981019061015a565b9091565b151590565b5190565b90565b90565b90565b6101e56101e06101ea926101cb565b6101ce565b6101c8565b90565b5f0190565b906102046101fe61025b565b156101bf565b80610235575b610219576102179161029c565b565b5f6330a289cf60e21b815280610231600482016101ed565b0390fd5b5061023f816101c4565b61025161024b5f6101d1565b916101c8565b1461020a565b5f90565b610263610257565b505f90565b61027c61027761028192610093565b6101ce565b610093565b90565b61028d90610268565b90565b61029990610284565b90565b906102a6826103d8565b816102d17fbc7cd75a20ee27fd9adebab32041f755214dbc6bffa90cc0225b39da2e5c2d3b91610290565b906102da61002b565b806102e4816101ed565b0390a26102f0816101c4565b6103026102fc5f6101d1565b916101c8565b115f146103165761031291610468565b505b565b505061032061042d565b610314565b61032e9061009e565b9052565b9190610345905f60208501940190610325565b565b90565b90565b5f1b90565b61036661036161036b92610347565b61034d565b61034a565b90565b6103977f360894a13ba1a3210667c828492db98dca3e2076cc3735a920a3ca505d382bbc610352565b90565b906103ab60018060a01b039161034d565b9181191691161790565b90565b906103cd6103c86103d492610290565b6103b5565b825461039a565b9055565b803b6103ec6103e65f6101d1565b916101c8565b1461040e5761040c905f61040661040161036e565b61053b565b016103b8565b565b610429905f918291634c9c8ce360e01b835260048301610332565b0390fd5b3461044061043a5f6101d1565b916101c8565b1161044757565b5f63b398979f60e01b81528061045f600482016101ed565b0390fd5b606090565b9061047c90610475610463565b508261053e565b80806104f8575b5f14610496575050610493610573565b90565b5f146104bb576104b7905f918291639996b31560e01b835260048301610332565b0390fd5b6104c361055b565b6104d56104cf5f6101d1565b916101c8565b115f03610568575f63d6bda27560e01b8152806104f4600482016101ed565b0390fd5b5061050161055b565b61051361050d5f6101d1565b916101c8565b118015610520575b610483565b50813b61053561052f5f6101d1565b916101c8565b1161051b565b90565b5f91829161054a610257565b50602082519201905af490565b5f90565b610563610557565b503d90565b6040513d5f823e3d90fd5b61057b610463565b50604051903d82523d5f602084013e3d602001820160405256fe6080604052600a6012565b6022565b5f90565b6018600e565b50601f60b5565b90565b5f8091368280378136915af43d5f803e5f14603b573d5ff35b3d5ffd5b90565b90565b5f1b90565b60596055605d92603f565b6045565b6042565b90565b60877f360894a13ba1a3210667c828492db98dca3e2076cc3735a920a3ca505d382bbc604a565b90565b5f1c90565b60018060a01b031690565b60a360a791608a565b608f565b90565b60b29054609a565b90565b60bb600e565b5060d05f60cb60c76060565b60d3565b0160aa565b90565b9056fea2646970667358221220ebc1a4f858955e838f7573d800eac43a8357d83e4dfcce845a8d8b24e092d9a964736f6c634300081c0033a264697066735822122004c2c87a3ad92daa413f5fb439b3fa2e96ee2efd634456a58fc4f9bf2accb23864736f6c634300081c003360c06040523461005657610019610014610127565b610148565b61002161005b565b612f836103db8239608051818181612997015281816129fc0152612b98015260a051818181611a980152612c140152612f8390f35b610061565b60405190565b5f80fd5b601f801991011690565b634e487b7160e01b5f52604160045260245ffd5b9061008d90610065565b810190811060018060401b038211176100a557604052565b61006f565b906100bd6100b661005b565b9283610083565b565b5f80fd5b60018060a01b031690565b6100d7906100c3565b90565b6100e3906100ce565b90565b6100ef816100da565b036100f657565b5f80fd5b90505190610107826100e6565b565b906020828203126101225761011f915f016100fa565b90565b6100bf565b61014561335e8038038061013a816100aa565b928339810190610109565b90565b61015190610153565b565b61015c9061015e565b565b610166610173565b60a0526101716102b1565b565b61017b6101b4565b565b90565b61019461018f610199926100c3565b61017d565b6100c3565b90565b6101a590610180565b90565b6101b19061019c565b90565b6101bd306101a8565b608052565b60401c90565b60ff1690565b6101da6101df916101c2565b6101c8565b90565b6101ec90546101ce565b90565b5f0190565b5f1c90565b60018060401b031690565b610210610215916101f4565b6101f9565b90565b6102229054610204565b90565b60018060401b031690565b5f1b90565b9061024660018060401b0391610230565b9181191691161790565b61026461025f61026992610225565b61017d565b610225565b90565b90565b9061028461027f61028b92610250565b61026c565b8254610235565b9055565b61029890610225565b9052565b91906102af905f6020850194019061028f565b565b6102b9610369565b6102c45f82016101e2565b61034d576102d35f8201610218565b6102eb6102e560018060401b03610225565b91610225565b036102f4575b50565b610307905f60018060401b03910161026f565b60018060401b036103447fc7f505b2f371ae2175ee4913f4499e1f2633a7b5936321eed1cdaeb6115181d29161033b61005b565b9182918261029c565b0390a15f6102f1565b5f63f92ee8a960e01b815280610365600482016101ef565b0390fd5b6103716103c6565b90565b5f90565b90565b90565b61039261038d61039792610378565b610230565b61037b565b90565b6103c37ff0c57e16840df040f15088dc2f81fe391c3923bec73e23a9662efc9c229c6a0061037e565b90565b6103ce610374565b506103d761039a565b9056fe60806040526004361015610015575b36610f7e57005b61001f5f3561017e565b806301ffc9a714610179578063150b7a021461017457806319822f7c1461016f5780632b7ac3f31461016a57806347e1da2a146101655780634a58db19146101605780634d44560d1461015b5780634f1ef2861461015657806352d1902d1461015157806363acc14d1461014c5780638da5cb5b14610147578063ad3cb1cc14610142578063b0d691fe1461013d578063b61d27f614610138578063bb4ae66714610133578063bc197c811461012e578063c399ec8814610129578063c4d66de814610124578063cfdf672f1461011f578063d087d2881461011a578063d7b23e27146101155763f23a6e610361000e57610f42565b610e9e565b610e2f565b610dfa565b610d8f565b610d3c565b610cfd565b610c27565b610bf0565b610b69565b610adb565b6109aa565b610965565b6108ea565b61089e565b61073e565b6106b9565b61067f565b610502565b610457565b61036c565b61020a565b60e01c90565b60405190565b5f80fd5b5f80fd5b5f80fd5b63ffffffff60e01b1690565b6101ab81610196565b036101b257565b5f80fd5b905035906101c3826101a2565b565b906020828203126101de576101db915f016101b6565b90565b61018e565b151590565b6101f1906101e3565b9052565b9190610208905f602085019401906101e8565b565b3461023a576102366102256102203660046101c5565b610f86565b61022d610184565b918291826101f5565b0390f35b61018a565b60018060a01b031690565b6102539061023f565b90565b61025f8161024a565b0361026657565b5f80fd5b9050359061027782610256565b565b90565b61028581610279565b0361028c57565b5f80fd5b9050359061029d8261027c565b565b5f80fd5b5f80fd5b5f80fd5b909182601f830112156102e55781359167ffffffffffffffff83116102e05760200192600183028401116102db57565b6102a7565b6102a3565b61029f565b9060808282031261034557610301815f840161026a565b9261030f826020850161026a565b9261031d8360408301610290565b92606082013567ffffffffffffffff81116103405761033c92016102ab565b9091565b610192565b61018e565b61035390610196565b9052565b919061036a905f6020850194019061034a565b565b346103a05761039c61038b6103823660046102ea565b93929092611004565b610393610184565b91829182610357565b0390f35b61018a565b5f80fd5b90816101209103126103b85790565b6103a5565b90565b6103c9816103bd565b036103d057565b5f80fd5b905035906103e1826103c0565b565b9091606082840312610430575f82013567ffffffffffffffff811161042b57610411846104289285016103a9565b9361041f81602086016103d4565b93604001610290565b90565b610192565b61018e565b61043e90610279565b9052565b9190610455905f60208501940190610435565b565b346104885761048461047361046d3660046103e3565b9161102e565b61047b610184565b91829182610442565b0390f35b61018a565b5f91031261049757565b61018e565b1c90565b60018060a01b031690565b6104bb9060086104c0930261049c565b6104a0565b90565b906104ce91546104ab565b90565b6104dd60015f906104c3565b90565b6104e99061024a565b9052565b9190610500905f602085019401906104e0565b565b346105325761051236600461048d565b61052e61051d6104d1565b610525610184565b918291826104ed565b0390f35b61018a565b909182601f830112156105715781359167ffffffffffffffff831161056c57602001926020830284011161056757565b6102a7565b6102a3565b61029f565b909182601f830112156105b05781359167ffffffffffffffff83116105ab5760200192602083028401116105a657565b6102a7565b6102a3565b61029f565b909182601f830112156105ef5781359167ffffffffffffffff83116105ea5760200192602083028401116105e557565b6102a7565b6102a3565b61029f565b90606082820312610675575f82013567ffffffffffffffff8111610670578161061e918401610537565b929093602082013567ffffffffffffffff811161066b5783610641918401610576565b929093604082013567ffffffffffffffff81116106665761066292016105b5565b9091565b610192565b610192565b610192565b61018e565b5f0190565b346106b45761069e6106923660046105f4565b949390939291926111ea565b6106a6610184565b806106b08161067a565b0390f35b61018a565b6106c436600461048d565b6106cc6113fd565b6106d4610184565b806106de8161067a565b0390f35b6106eb9061023f565b90565b6106f7816106e2565b036106fe57565b5f80fd5b9050359061070f826106ee565b565b9190604083820312610739578061072d610736925f8601610702565b93602001610290565b90565b61018e565b3461076d57610757610751366004610711565b9061156c565b61075f610184565b806107698161067a565b0390f35b61018a565b5f80fd5b601f801991011690565b634e487b7160e01b5f52604160045260245ffd5b9061079e90610776565b810190811067ffffffffffffffff8211176107b857604052565b610780565b906107d06107c9610184565b9283610794565b565b67ffffffffffffffff81116107f0576107ec602091610776565b0190565b610780565b90825f939282370152565b90929192610815610810826107d2565b6107bd565b938185526020850190828401116108315761082f926107f5565b565b610772565b9080601f830112156108545781602061085193359101610800565b90565b61029f565b91909160408184031261089957610872835f830161026a565b92602082013567ffffffffffffffff8111610894576108919201610836565b90565b610192565b61018e565b6108b26108ac366004610859565b906115a1565b6108ba610184565b806108c48161067a565b0390f35b6108d1906103bd565b9052565b91906108e8905f602085019401906108c8565b565b3461091a576108fa36600461048d565b610916610905611621565b61090d610184565b918291826108d5565b0390f35b61018a565b60808183031261096057610935825f830161026a565b9261095d610946846020850161026a565b93610954816040860161026a565b936060016103d4565b90565b61018e565b346109975761098161097836600461091f565b92919091611a7b565b610989610184565b806109938161067a565b0390f35b61018a565b6109a75f5f906104c3565b90565b346109da576109ba36600461048d565b6109d66109c561099c565b6109cd610184565b918291826104ed565b0390f35b61018a565b67ffffffffffffffff81116109fd576109f9602091610776565b0190565b610780565b90610a14610a0f836109df565b6107bd565b918252565b5f7f352e302e30000000000000000000000000000000000000000000000000000000910152565b610a4a6005610a02565b90610a5760208301610a19565b565b610a61610a40565b90565b610a6c610a59565b90565b610a77610a64565b90565b5190565b60209181520190565b90825f9392825e0152565b610ab1610aba602093610abf93610aa881610a7a565b93848093610a7e565b95869101610a87565b610776565b0190565b610ad89160208201915f818403910152610a92565b90565b34610b0b57610aeb36600461048d565b610b07610af6610a6f565b610afe610184565b91829182610ac3565b0390f35b61018a565b90565b610b27610b22610b2c9261023f565b610b10565b61023f565b90565b610b3890610b13565b90565b610b4490610b2f565b90565b610b5090610b3b565b9052565b9190610b67905f60208501940190610b47565b565b34610b9957610b7936600461048d565b610b95610b84611a8d565b610b8c610184565b91829182610b54565b0390f35b61018a565b91606083830312610beb57610bb5825f850161026a565b92610bc38360208301610290565b92604082013567ffffffffffffffff8111610be657610be292016102ab565b9091565b610192565b61018e565b34610c2257610c0c610c03366004610b9e565b92919091611aba565b610c14610184565b80610c1e8161067a565b0390f35b61018a565b34610c5657610c40610c3a366004610711565b90611aff565b610c48610184565b80610c528161067a565b0390f35b61018a565b9160a083830312610cf857610c72825f850161026a565b92610c80836020830161026a565b92604082013567ffffffffffffffff8111610cf35781610ca1918401610576565b929093606082013567ffffffffffffffff8111610cee5783610cc4918401610576565b929093608082013567ffffffffffffffff8111610ce957610ce592016102ab565b9091565b610192565b610192565b610192565b61018e565b34610d3757610d33610d22610d13366004610c5b565b96959095949194939293611b25565b610d2a610184565b91829182610357565b0390f35b61018a565b34610d6c57610d4c36600461048d565b610d68610d57611b6e565b610d5f610184565b91829182610442565b0390f35b61018a565b90602082820312610d8a57610d87915f0161026a565b90565b61018e565b34610dbd57610da7610da2366004610d71565b611d6f565b610daf610184565b80610db98161067a565b0390f35b61018a565b90565b610dd5906008610dda930261049c565b610dc2565b90565b90610de89154610dc5565b90565b610df760025f90610ddd565b90565b34610e2a57610e0a36600461048d565b610e26610e15610deb565b610e1d610184565b918291826108d5565b0390f35b61018a565b34610e5f57610e3f36600461048d565b610e5b610e4a611ddd565b610e52610184565b91829182610442565b0390f35b61018a565b9091606082840312610e9957610e96610e7f845f850161026a565b93610e8d816020860161026a565b93604001610290565b90565b61018e565b34610ecd57610eb7610eb1366004610e64565b91611f25565b610ebf610184565b80610ec98161067a565b0390f35b61018a565b91909160a081840312610f3d57610eeb835f830161026a565b92610ef9816020840161026a565b92610f078260408501610290565b92610f158360608301610290565b92608082013567ffffffffffffffff8111610f3857610f3492016102ab565b9091565b610192565b61018e565b34610f7957610f75610f64610f58366004610ed2565b94939093929192612007565b610f6c610184565b91829182610357565b0390f35b61018a565b5f80fd5b5f90565b610f8e610f82565b5080610fa9610fa3630a85bd0160e11b610196565b91610196565b148015610fdf575b908115610fbd575b5090565b9050610fd8610fd26301ffc9a760e01b610196565b91610196565b145f610fb9565b5080610ffa610ff4630271189760e51b610196565b91610196565b14610fb1565b5f90565b5050505050611011611000565b50630a85bd0160e11b90565b5f90565b3561102b8161027c565b90565b929161105a60206110536110609461104461101d565b5061104d6120a3565b876125a5565b9501611021565b5061273b565b565b5090565b5090565b5090565b90565b61108561108061108a9261106e565b610b10565b610279565b90565b5f7f77726f6e67206172726179206c656e6774687300000000000000000000000000910152565b6110c16013602092610a7e565b6110ca8161108d565b0190565b6110e39060208101905f8183039101526110b4565b90565b156110ed57565b6110f5610184565b62461bcd60e51b81528061110b600482016110ce565b0390fd5b600161111b9101610279565b90565b634e487b7160e01b5f52603260045260245ffd5b9190811015611142576020020190565b61111e565b3561115181610256565b90565b9190811015611164576020020190565b61111e565b5f80fd5b5f80fd5b5f80fd5b9035906001602003813603038212156111b7570180359067ffffffffffffffff82116111b2576020019160018202360383136111ad57565b611171565b61116d565b611169565b908210156111d75760206111d39202810190611175565b9091565b61111e565b6111e7913691610800565b90565b9190929594956111f8612817565b611203838590611062565b61121f611219611214888b90611066565b610279565b91610279565b148061136a575b61122f906110e6565b61123a82829061106a565b61124c6112465f611071565b91610279565b145f146112d757505061125e5f611071565b5b8061127c611276611271858790611062565b610279565b91610279565b10156112ce576112c9906112c461129d61129885878591611132565b611147565b5f6112be6112b86112b08a8d88916111bc565b919093611071565b926111dc565b91612873565b61110f565b61125f565b5050505090505b565b916112e55f97949297611071565b5b806113036112fd6112f8858790611062565b610279565b91610279565b101561135d576113589061135361132461131f85878591611132565b611147565b6113386113338c898691611154565b611021565b61134d6113478b8b87916111bc565b906111dc565b91612873565b61110f565b6112e6565b50505050505090506112d5565b5061137682829061106a565b6113886113825f611071565b91610279565b148015611395575b611226565b5061122f6113a483839061106a565b6113c06113ba6113b5898c90611066565b610279565b91610279565b149050611390565b6113d190610b2f565b90565b5f80fd5b60e01b90565b5f9103126113e857565b61018e565b6113f5610184565b3d5f823e3d90fd5b61140d611408611a8d565b610b3b565b63b760faf93491909190611420306113c8565b90803b15611493576114455f9361145095611439610184565b968795869485936113d8565b8352600483016104ed565b03925af1801561148e57611462575b50565b611481905f3d8111611487575b6114798183610794565b8101906113de565b5f61145f565b503d61146f565b6113ed565b6113d4565b906114aa916114a5612925565b6114dc565b565b6114b5906106e2565b9052565b9160206114da9294936114d360408201965f8301906114ac565b0190610435565b565b6114ec6114e7611a8d565b610b3b565b9163205c2878919092803b15611567576115195f809461152461150d610184565b978896879586946113d8565b8452600484016114b9565b03925af1801561156257611536575b50565b611555905f3d811161155b575b61154d8183610794565b8101906113de565b5f611533565b503d611543565b6113ed565b6113d4565b9061157691611498565b565b9061158a91611585612986565b61158c565b565b9061159f9161159a81612a2d565b612a89565b565b906115ab91611578565b565b5f90565b6115c2906115bd612b87565b611615565b90565b90565b5f1b90565b6115e16115dc6115e6926115c5565b6115c8565b6103bd565b90565b6116127f360894a13ba1a3210667c828492db98dca3e2076cc3735a920a3ca505d382bbc6115cd565b90565b5061161e6115e9565b90565b61163161162c6115ad565b6115b1565b90565b60401c90565b60ff1690565b61164c61165191611634565b61163a565b90565b61165e9054611640565b90565b5f1c90565b67ffffffffffffffff1690565b61167f61168491611661565b611666565b90565b6116919054611673565b90565b67ffffffffffffffff1690565b6116b56116b06116ba9261106e565b610b10565b611694565b90565b90565b6116d46116cf6116d9926116bd565b610b10565b611694565b90565b6116e590610b2f565b90565b906116fb67ffffffffffffffff916115c8565b9181191691161790565b61171961171461171e92611694565b610b10565b611694565b90565b90565b9061173961173461174092611705565b611721565b82546116e8565b9055565b60401b90565b9061175e68ff000000000000000091611744565b9181191691161790565b611771906101e3565b90565b90565b9061178c61178761179392611768565b611774565b825461174a565b9055565b6117a0906116c0565b9052565b91906117b7905f60208501940190611797565b565b9091926117c4612be5565b936117d96117d35f8701611654565b156101e3565b936117e55f8701611687565b806117f86117f25f6116a1565b91611694565b1480611912575b9061181361180d60016116c0565b91611694565b14806118ea575b6118259091156101e3565b90816118d9575b506118bd576118559361184a61184260016116c0565b5f8901611724565b856118ab575b6119d9565b61185d575b50565b61186a905f809101611777565b60016118a27fc7f505b2f371ae2175ee4913f4499e1f2633a7b5936321eed1cdaeb6115181d291611899610184565b918291826117a4565b0390a15f61185a565b6118b860015f8901611777565b611850565b5f63f92ee8a960e01b8152806118d56004820161067a565b0390fd5b6118e49150156101e3565b5f61182c565b506118256118f7306116dc565b3b61190a6119045f611071565b91610279565b14905061181a565b50856117ff565b61192d6119286119329261106e565b610b10565b61023f565b90565b61193e90611919565b90565b9061195260018060a01b03916115c8565b9181191691161790565b61196590610b2f565b90565b90565b9061198061197b6119879261195c565b611968565b8254611941565b9055565b906119975f19916115c8565b9181191691161790565b6119aa906103bd565b90565b6119b690611661565b90565b906119ce6119c96119d5926119a1565b6119ad565b825461198b565b9055565b909291926119fe6119f86119f36119ee611a8d565b610b3b565b61024a565b9161024a565b03611a5f5782611a1e611a18611a135f611935565b61024a565b9161024a565b14611a4357611a4192611a33611a3a92612c08565b600161196b565b60026119b9565b565b5f63baa3de5f60e01b815280611a5b6004820161067a565b0390fd5b5f632039d3c960e01b815280611a776004820161067a565b0390fd5b90611a879392916117b9565b565b5f90565b611a95611a89565b507f000000000000000000000000000000000000000000000000000000000000000090565b611ada93611ad491939293611acd612817565b93926111dc565b91612873565b565b611ae590610b2f565b90565b611af15f610a02565b90565b611afc611ae8565b90565b90611b14611b2392611b0f612817565b611adc565b90611b1d611af4565b91612873565b565b5050505050505050611b35611000565b5063bc197c8160e01b90565b90505190611b4e8261027c565b565b90602082820312611b6957611b66915f01611b41565b90565b61018e565b611b7661101d565b50611bbe6020611b8c611b87611a8d565b610b3b565b6370a0823190611bb3611b9e306113c8565b92611ba7610184565b958694859384936113d8565b8352600483016104ed565b03915afa908115611c02575f91611bd4575b5090565b611bf5915060203d8111611bfb575b611bed8183610794565b810190611b50565b5f611bd0565b503d611be3565b6113ed565b611c0f612be5565b90611c24611c1e5f8401611654565b156101e3565b90611c305f8401611687565b80611c43611c3d5f6116a1565b91611694565b1480611d5d575b90611c5e611c5860016116c0565b91611694565b1480611d35575b611c709091156101e3565b9081611d24575b50611d0857611ca090611c95611c8d60016116c0565b5f8601611724565b82611cf6575b611d64565b611ca8575b50565b611cb5905f809101611777565b6001611ced7fc7f505b2f371ae2175ee4913f4499e1f2633a7b5936321eed1cdaeb6115181d291611ce4610184565b918291826117a4565b0390a15f611ca5565b611d0360015f8601611777565b611c9b565b5f63f92ee8a960e01b815280611d206004820161067a565b0390fd5b611d2f9150156101e3565b5f611c77565b50611c70611d42306116dc565b3b611d55611d4f5f611071565b91610279565b149050611c65565b5082611c4a565b611d6d90612c08565b565b611d7890611c07565b565b611d8390610b2f565b90565b60018060c01b031690565b611da5611da0611daa9261106e565b610b10565b611d86565b90565b611db690611d91565b9052565b916020611ddb929493611dd460408201965f8301906104e0565b0190611dad565b565b611de561101d565b50611df6611df1611a8d565b610b3b565b60206335567e1a91611e0730611d7a565b90611e245f94611e2f611e18610184565b968795869485946113d8565b845260048401611dba565b03915afa908115611e73575f91611e45575b5090565b611e66915060203d8111611e6c575b611e5e8183610794565b810190611b50565b5f611e41565b503d611e54565b6113ed565b916020611e99929493611e9260408201965f8301906104e0565b0190610435565b565b90611ead611ea8836107d2565b6107bd565b918252565b606090565b3d5f14611ed257611ec73d611e9b565b903d5f602084013e5b565b611eda611eb2565b90611ed0565b5190565b611eed816101e3565b03611ef457565b5f80fd5b90505190611f0582611ee4565b565b90602082820312611f2057611f1d915f01611ef8565b90565b61018e565b905f92611f698493611f35612817565b92611f5a611f41610184565b93849260046020850163a9059cbb60e01b815201611e78565b60208201810382520382610794565b82602082019151925af1611f85611f7e611eb7565b91156101e3565b908115611fb0575b50611f9457565b5f633c9fd93960e21b815280611fac6004820161067a565b0390fd5b9050611fbb81611ee0565b611fcd611fc75f611071565b91610279565b119081611fdc575b505f611f8d565b6120019150611ffb906020611ff082611ee0565b818301019101611f07565b156101e3565b5f611fd5565b505050505050612015611000565b5063f23a6e6160e01b90565b5f7f6163636f756e743a206e6f742066726f6d20456e747279506f696e7400000000910152565b612055601c602092610a7e565b61205e81612021565b0190565b6120779060208101905f818303910152612048565b90565b1561208157565b612089610184565b62461bcd60e51b81528061209f60048201612062565b0390fd5b6120ce336120c86120c26120bd6120b8611a8d565b610b3b565b61024a565b9161024a565b1461207a565b565b5f80fd5b67ffffffffffffffff81116120e95760200290565b610780565b909291926121036120fe826120d4565b6107bd565b93602085920283019281841161213b57915b8383106121225750505050565b602080916121308486610290565b815201920191612115565b6102a7565b9080601f8301121561215b57612158916002906120ee565b90565b61029f565b67ffffffffffffffff81116121755760200290565b610780565b9092919261218f61218a82612160565b6107bd565b9360408592028301928184116121c857915b8383106121ae5750505050565b60206040916121bd8486612140565b8152019201916121a1565b6102a7565b9080601f830112156121e8576121e59160029061217a565b90565b61029f565b67ffffffffffffffff81116122025760200290565b610780565b9092919261221c612217826121ed565b6107bd565b93602085920283019281841161225457915b83831061223b5750505050565b602080916122498486610290565b81520192019161222e565b6102a7565b9080601f830112156122745761227191600190612207565b90565b61029f565b9190610120838203126122d9576122d29061229460806107bd565b936122a1825f8301612140565b5f8601526122b282604083016121cd565b60208601526122c48260c08301612140565b604086015261010001612259565b6060830152565b6120d0565b90610120828203126122f8576122f5915f01612279565b90565b61018e565b50600190565b9061230d826122fd565b81101561231b576020020190565b61111e565b61232a9051610279565b90565b61233961233e91611661565b610dc2565b90565b61234b905461232d565b90565b61236261235d61236792610279565b610b10565b610279565b90565b61237661237b91611661565b61234e565b90565b61238a61238f91611661565b6104a0565b90565b61239c905461237e565b90565b6123a890610b13565b90565b6123b49061239f565b90565b6123c090610b2f565b90565b50600290565b905090565b90565b6123da90610279565b9052565b906123eb816020936123d1565b0190565b60200190565b61241161240b612404836123c3565b80946123c9565b916123ce565b5f915b8383106124215750505050565b61243761243160019284516123de565b926123ef565b92019190612414565b50600290565b905090565b90565b905090565b61246f612469612462836123c3565b809461244e565b916123ce565b5f915b83831061247f5750505050565b61249561248f60019284516123de565b926123ef565b92019190612472565b906124ab81604093612453565b0190565b60200190565b6124d16124cb6124c483612440565b8094612446565b9161244b565b5f915b8383106124e15750505050565b6124f76124f1600192845161249e565b926124af565b920191906124d4565b905090565b90565b60200190565b61252a61252461251d836122fd565b8094612500565b91612505565b5f915b83831061253a5750505050565b61255061254a60019284516123de565b92612508565b9201919061252d565b612590612597946125866101009498979561257c61012086019a5f8701906123f5565b60408501906124b5565b60c08301906123f5565b019061250e565b565b6125a25f611071565b90565b6125ca91506125c2906125b661101d565b50610100810190611175565b8101906122de565b6125e96125e460608301516125de5f611071565b90612303565b612320565b61260c6126066126016125fc6002612341565b61236a565b610279565b91610279565b036126e757602061262d6126286126236001612392565b6123ab565b6123b7565b6343753b4d906126625f8501519261266d85870151966060604082015191015190612656610184565b988997889687966113d8565b865260048601612559565b03915afa80156126e257612689915f916126b4575b50156101e3565b61269857612695612599565b90565b5f6309bde33960e01b8152806126b06004820161067a565b0390fd5b6126d5915060203d81116126db575b6126cd8183610794565b810190611f07565b5f612682565b503d6126c3565b6113ed565b5f639c861ddd60e01b8152806126ff6004820161067a565b0390fd5b61270c90610b13565b90565b61271890612703565b90565b905090565b61272b5f809261271b565b0190565b61273890612720565b90565b8061274e6127485f611071565b91610279565b03612757575b50565b5f809161276b6127663361270f565b611adc565b9082199190612778610184565b91826127838161272f565b0393f15061278f611eb7565b505f612754565b5f7f6163636f756e743a206e6f74204f776e6572206f7220456e747279506f696e74910152565b6127c960208092610a7e565b6127d281612796565b0190565b6127eb9060208101905f8183039101526127bd565b90565b156127f557565b6127fd610184565b62461bcd60e51b815280612813600482016127d6565b0390fd5b3361283961283361282e612829611a8d565b610b3b565b61024a565b9161024a565b14801561284c575b61284a906127ee565b565b5061284a3361286b6128656128605f612392565b61024a565b9161024a565b149050612841565b905f92839291602082019151925af161289461288d611eb7565b91156101e3565b61289b5750565b602081519101fd5b5f7f6f6e6c79206f776e657200000000000000000000000000000000000000000000910152565b6128d7600a602092610a7e565b6128e0816128a3565b0190565b6128f99060208101905f8183039101526128ca565b90565b1561290357565b61290b610184565b62461bcd60e51b815280612921600482016128e4565b0390fd5b3361294061293a6129355f612392565b61024a565b9161024a565b148015612953575b612951906128fc565b565b506129513361297261296c612967306113c8565b61024a565b9161024a565b149050612948565b61298390610b2f565b90565b61298f3061297a565b6129c16129bb7f000000000000000000000000000000000000000000000000000000000000000061024a565b9161024a565b1480156129eb575b6129cf57565b5f63703e46dd60e11b8152806129e76004820161067a565b0390fd5b506129f4612c8b565b612a26612a207f000000000000000000000000000000000000000000000000000000000000000061024a565b9161024a565b14156129c9565b50612a36612925565b565b612a4190610b13565b90565b612a4d90612a38565b90565b612a5990610b2f565b90565b90505190612a69826103c0565b565b90602082820312612a8457612a81915f01612a5c565b90565b61018e565b9190612ab76020612aa1612a9c86612a44565b612a50565b6352d1902d90612aaf610184565b9384926113d8565b82528180612ac76004820161067a565b03915afa80915f92612b57575b50155f14612b08575050906001612ae957505b565b612b04905f918291634c9c8ce360e01b8352600483016104ed565b0390fd5b9283612b23612b1d612b186115e9565b6103bd565b916103bd565b03612b3857612b33929350612cb1565b612ae7565b612b53845f918291632a87526960e21b8352600483016108d5565b0390fd5b612b7991925060203d8111612b80575b612b718183610794565b810190612a6b565b905f612ad4565b503d612b67565b612b903061297a565b612bc2612bbc7f000000000000000000000000000000000000000000000000000000000000000061024a565b9161024a565b03612bc957565b5f63703e46dd60e11b815280612be16004820161067a565b0390fd5b612bed612d85565b90565b612bf990610b13565b90565b612c0590612bf0565b90565b612c12905f61196b565b7f0000000000000000000000000000000000000000000000000000000000000000612c3c5f612392565b612c6f612c697f47e55c76e7a6f1fd8996a1da8008c1ea29699cca35e7bcd057f2dec313b6e5de93612bfc565b9161195c565b91612c78610184565b80612c828161067a565b0390a3565b5f90565b612c93612c87565b50612cae5f612ca8612ca36115e9565b612d99565b01612392565b90565b90612cbb82612d9c565b81612ce67fbc7cd75a20ee27fd9adebab32041f755214dbc6bffa90cc0225b39da2e5c2d3b9161195c565b90612cef610184565b80612cf98161067a565b0390a2612d0581611ee0565b612d17612d115f611071565b91610279565b115f14612d2b57612d2791612e27565b505b565b5050612d35612df1565b612d29565b90565b612d51612d4c612d5692612d3a565b6115c8565b6103bd565b90565b612d827ff0c57e16840df040f15088dc2f81fe391c3923bec73e23a9662efc9c229c6a00612d3d565b90565b612d8d6115ad565b50612d96612d59565b90565b90565b803b612db0612daa5f611071565b91610279565b14612dd257612dd0905f612dca612dc56115e9565b612d99565b0161196b565b565b612ded905f918291634c9c8ce360e01b8352600483016104ed565b0390fd5b34612e04612dfe5f611071565b91610279565b11612e0b57565b5f63b398979f60e01b815280612e236004820161067a565b0390fd5b90612e3b90612e34611eb2565b5082612efa565b8080612eb7575b5f14612e55575050612e52612f2b565b90565b5f14612e7a57612e76905f918291639996b31560e01b8352600483016104ed565b0390fd5b612e82612f13565b612e94612e8e5f611071565b91610279565b115f03612f20575f63d6bda27560e01b815280612eb36004820161067a565b0390fd5b50612ec0612f13565b612ed2612ecc5f611071565b91610279565b118015612edf575b612e42565b50813b612ef4612eee5f611071565b91610279565b11612eda565b5f918291612f06610f82565b50602082519201905af490565b612f1b61101d565b503d90565b6040513d5f823e3d90fd5b612f33611eb2565b50604051903d82523d5f602084013e3d602001820160405256fea2646970667358221220c0fb09e5b17c04548f79fbcf0b436637efa3ee11896f85f139caf7abdf015e7464736f6c634300081c0033",
  "linkReferences": {},
  "deployedLinkReferences": {}
}