{
  "contracts/mocks/MockERC20.sol": {
    "MockERC20": {
      "abi": [
        {
          "inputs": [],
          "stateMutability": "nonpayable",
          "type": "constructor"
        },
        {
          "inputs": [
            {
              "internalType": "address",
              "name": "spender",
              "type": "address"
            },
            {
              "internalType": "uint256",
              "name": "allowance",
              "type": "uint256"
            },
            {
              "internalType": "uint256",
              "name": "needed",
              "type": "uint256"
            }
          ],
          "name": "ERC20InsufficientAllowance",
          "type": "error"
        },
        {
          "inputs": [
            {
              "internalType": "address",
              "name": "sender",
              "type": "address"
            },
            {
              "internalType": "uint256",
              "name": "balance",
              "type": "uint256"
            },
            {
              "internalType": "uint256",
              "name": "needed",
              "type": "uint256"
            }
          ],
          "name": "ERC20InsufficientBalance",
          "type": "error"
        },
        {
          "inputs": [
            {
              "internalType": "address",
              "name": "approver",
              "type": "address"
            }
          ],
          "name": "ERC20InvalidApprover",
          "type": "error"
        },
        {
          "inputs": [
            {
              "internalType": "address",
              "name": "receiver",
              "type": "address"
            }
          ],
          "name": "ERC20InvalidReceiver",
          "type": "error"
        },
        {
          "inputs": [
            {
              "internalType": "address",
              "name": "sender",
              "type": "address"
            }
          ],
          "name": "ERC20InvalidSender",
          "type": "error"
        },
        {
          "inputs": [
            {
              "internalType": "address",
              "name": "spender",
              "type": "address"
            }
          ],
          "name": "ERC20InvalidSpender",
          "type": "error"
        },
        {
          "anonymous": false,
          "inputs": [
            {
              "indexed": true,
              "internalType": "address",
              "name": "owner",
              "type": "address"
            },
            {
              "indexed": true,
              "internalType": "address",
              "name": "spender",
              "type": "address"
            },
            {
              "indexed": false,
              "internalType": "uint256",
              "name": "value",
              "type": "uint256"
            }
          ],
          "name": "Approval",
          "type": "event"
        },
        {
          "anonymous": false,
          "inputs": [
            {
              "indexed": true,
              "internalType": "address",
              "name": "from",
              "type": "address"
            },
            {
              "indexed": true,
              "internalType": "address",
              "name": "to",
              "type": "address"
            },
            {
              "indexed": false,
              "internalType": "uint256",
              "name": "value",
              "type": "uint256"
            }
          ],
          "name": "Transfer",
          "type": "event"
        },
        {
          "inputs": [],
          "name": "INITIAL_SUPPLY",
          "outputs": [
            {
              "internalType": "uint256",
              "name": "",
              "type": "uint256"
            }
          ],
          "stateMutability": "view",
          "type": "function"
        },
        {
          "inputs": [
            {
              "internalType": "address",
              "name": "owner",
              "type": "address"
            },
            {
              "internalType": "address",
              "name": "spender",
              "type": "address"
            }
          ],
          "name": "allowance",
          "outputs": [
            {
              "internalType": "uint256",
              "name": "",
              "type": "uint256"
            }
          ],
          "stateMutability": "view",
          "type": "function"
        },
        {
          "inputs": [
            {
              "internalType": "address",
              "name": "spender",
              "type": "address"
            },
            {
              "internalType": "uint256",
              "name": "value",
              "type": "uint256"
            }
          ],
          "name": "approve",
          "outputs": [
            {
              "internalType": "bool",
              "name": "",
              "type": "bool"
            }
          ],
          "stateMutability": "nonpayable",
          "type": "function"
        },
        {
          "inputs": [
            {
              "internalType": "address",
              "name": "account",
              "type": "address"
            }
          ],
          "name": "balanceOf",
          "outputs": [
            {
              "internalType": "uint256",
              "name": "",
              "type": "uint256"
            }
          ],
          "stateMutability": "view",
          "type": "function"
        },
        {
          "inputs": [],
          "name": "decimals",
          "outputs": [
            {
              "internalType": "uint8",
              "name": "",
              "type": "uint8"
            }
          ],
          "stateMutability": "view",
          "type": "function"
        },
        {
          "inputs": [
            {
              "internalType": "address",
              "name": "to",
              "type": "address"
            },
            {
              "internalType": "uint256",
              "name": "amount",
              "type": "uint256"
            }
          ],
          "name": "mint",
          "outputs": [],
          "stateMutability": "nonpayable",
          "type": "function"
        },
        {
          "inputs": [],
          "name": "name",
          "outputs": [
            {
              "internalType": "string",
              "name": "",
              "type": "string"
            }
          ],
          "stateMutability": "view",
          "type": "function"
        },
        {
          "inputs": [],
          "name": "symbol",
          "outputs": [
            {
              "internalType": "string",
              "name": "",
              "type": "string"
            }
          ],
          "stateMutability": "view",
          "type": "function"
        },
        {
          "inputs": [],
          "name": "totalSupply",
          "outputs": [
            {
              "internalType": "uint256",
              "name": "",
              "type": "uint256"
            }
          ],
          "stateMutability": "view",
          "type": "function"
        },
        {
          "inputs": [
            {
              "internalType": "address",
              "name": "to",
              "type": "address"
            },
            {
              "internalType": "uint256",
              "name": "value",
              "type": "uint256"
            }
          ],
          "name": "transfer",
          "outputs": [
            {
              "internalType": "bool",
              "name": "",
              "type": "bool"
            }
          ],
          "stateMutability": "nonpayable",
          "type": "function"
        },
        {
          "inputs": [
            {
              "internalType": "address",
              "name": "from",
              "type": "address"
            },
            {
              "internalType": "address",
              "name": "to",
              "type": "address"
            },
            {
              "internalType": "uint256",
              "name": "value",
              "type": "uint256"
            }
          ],
          "name": "transferFrom",
          "outputs": [
            {
              "internalType": "bool",
              "name": "",
              "type": "bool"
            }
          ],
          "stateMutability": "nonpayable",
          "type": "function"
        }
      ],
      "evm": {
        "bytecode": {
          "linkReferences": {},
          "object": "60806040523461002757610011610199565b61001961002c565b610e276107b88239610e2790f35b610032565b60405190565b5f80fd5b601f801991011690565b634e487b7160e01b5f52604160045260245ffd5b9061005e90610036565b810190811060018060401b0382111761007657604052565b610040565b9061008e61008761002c565b9283610054565b565b60018060401b0381116100ac576100a8602091610036565b0190565b610040565b906100c36100be83610090565b61007b565b918252565b5f7f4d6f636b20546f6b656e00000000000000000000000000000000000000000000910152565b6100f9600a6100b1565b90610106602083016100c8565b565b6101106100ef565b90565b5f7f4d434b0000000000000000000000000000000000000000000000000000000000910152565b61014460036100b1565b9061015160208301610113565b565b61015b61013a565b90565b90565b90565b90565b61017b6101766101809261015e565b610164565b610161565b90565b61019669d3c21bcecceda1000000610167565b90565b6101b26101a4610108565b6101ac610153565b90610417565b6101c4336101be610183565b90610493565b565b5190565b634e487b7160e01b5f52602260045260245ffd5b90600160028304921680156101fe575b60208310146101f957565b6101ca565b91607f16916101ee565b5f5260205f2090565b601f602091010490565b1b90565b9190600861023a9102916102345f198461021b565b9261021b565b9181191691161790565b61025861025361025d92610161565b610164565b610161565b90565b90565b919061027961027461028193610244565b610260565b90835461021f565b9055565b5f90565b61029b91610295610285565b91610263565b565b5b8181106102a9575050565b806102b65f600193610289565b0161029e565b9190601f81116102cc575b505050565b6102d86102fd93610208565b9060206102e484610211565b83019310610305575b6102f690610211565b019061029d565b5f80806102c7565b91506102f6819290506102ed565b1c90565b90610327905f1990600802610313565b191690565b8161033691610317565b906002021790565b90610348816101c6565b9060018060401b0382116104065761036a8261036485546101de565b856102bc565b602090601f831160011461039e5791809161038d935f92610392575b505061032c565b90555b565b90915001515f80610386565b601f198316916103ad85610208565b925f5b8181106103ee575091600293918560019694106103d4575b50505002019055610390565b6103e4910151601f841690610317565b90555f80806103c8565b919360206001819287870151815501950192016103b0565b610040565b906104159161033e565b565b9061042661042d92600361040b565b600461040b565b565b90565b60018060a01b031690565b61045161044c6104569261042f565b610164565b610432565b90565b6104629061043d565b90565b61046e90610432565b90565b61047a90610465565b9052565b9190610491905f60208501940190610471565b565b806104ae6104a86104a35f610459565b610465565b91610465565b146104ca576104c8916104c05f610459565b919091610648565b565b6104ed6104d65f610459565b5f91829163ec442f0560e01b83526004830161047e565b0390fd5b61050561050061050a92610432565b610164565b610432565b90565b610516906104f1565b90565b6105229061050d565b90565b9061052f90610519565b5f5260205260405f2090565b5f1c90565b90565b61054f6105549161053b565b610540565b90565b6105619054610543565b90565b61056d90610161565b9052565b60409061059a6105a1949695939661059060608401985f850190610471565b6020830190610564565b0190610564565b565b906105ae9103610161565b90565b5f1b90565b906105c25f19916105b1565b9181191691161790565b906105e16105dc6105e892610244565b610260565b82546105b6565b9055565b634e487b7160e01b5f52601160045260245ffd5b61060f61061591939293610161565b92610161565b820180921161062057565b6105ec565b906106309101610161565b90565b9190610646905f60208501940190610564565b565b9190918061066661066061065b5f610459565b610465565b91610465565b145f146107475761068a6106838361067e6002610557565b610600565b60026105cc565b5b826106a66106a061069b5f610459565b610465565b91610465565b145f1461071b576106ca6106c3836106be6002610557565b6105a3565b60026105cc565b5b9190916107166107046106fe7fddf252ad1be2c89b69c2b068fc378daa952ba7f163c4a11628f55a4df523b3ef93610519565b93610519565b9361070d61002c565b91829182610633565b0390a3565b6107428261073c61072d5f8790610525565b9161073783610557565b610625565b906105cc565b6106cb565b61075a6107555f8390610525565b610557565b8061076d61076785610161565b91610161565b10610795576107806107909184906105a3565b61078b5f8490610525565b6105cc565b61068b565b906107b39091925f93849363391434e360e21b855260048501610571565b0390fdfe60806040526004361015610013575b61056f565b61001d5f356100cc565b806306fdde03146100c7578063095ea7b3146100c257806318160ddd146100bd57806323b872dd146100b85780632ff2e9dc146100b3578063313ce567146100ae57806340c10f19146100a957806370a08231146100a457806395d89b411461009f578063a9059cbb1461009a5763dd62ed3e0361000e57610539565b6104d6565b6104a1565b61046c565b61041a565b6103e0565b610383565b61030a565b61029b565b610243565b61015a565b60e01c90565b60405190565b5f80fd5b5f80fd5b5f9103126100ea57565b6100dc565b5190565b60209181520190565b90825f9392825e0152565b601f801991011690565b61013061013960209361013e93610127816100ef565b938480936100f3565b958691016100fc565b610107565b0190565b6101579160208201915f818403910152610111565b90565b3461018a5761016a3660046100e0565b6101866101756106cc565b61017d6100d2565b91829182610142565b0390f35b6100d8565b60018060a01b031690565b6101a39061018f565b90565b6101af8161019a565b036101b657565b5f80fd5b905035906101c7826101a6565b565b90565b6101d5816101c9565b036101dc57565b5f80fd5b905035906101ed826101cc565b565b9190604083820312610217578061020b610214925f86016101ba565b936020016101e0565b90565b6100dc565b151590565b61022a9061021c565b9052565b9190610241905f60208501940190610221565b565b346102745761027061025f6102593660046101ef565b906106e6565b6102676100d2565b9182918261022e565b0390f35b6100d8565b610282906101c9565b9052565b9190610299905f60208501940190610279565b565b346102cb576102ab3660046100e0565b6102c76102b6610735565b6102be6100d2565b91829182610286565b0390f35b6100d8565b9091606082840312610305576103026102eb845f85016101ba565b936102f981602086016101ba565b936040016101e0565b90565b6100dc565b3461033b576103376103266103203660046102d0565b9161074b565b61032e6100d2565b9182918261022e565b0390f35b6100d8565b90565b90565b61035a61035561035f92610340565b610343565b6101c9565b90565b61037569d3c21bcecceda1000000610346565b90565b610380610362565b90565b346103b3576103933660046100e0565b6103af61039e610378565b6103a66100d2565b91829182610286565b0390f35b6100d8565b60ff1690565b6103c7906103b8565b9052565b91906103de905f602085019401906103be565b565b34610410576103f03660046100e0565b61040c6103fb61079d565b6104036100d2565b918291826103cb565b0390f35b6100d8565b5f0190565b346104495761043361042d3660046101ef565b906107b3565b61043b6100d2565b8061044581610415565b0390f35b6100d8565b9060208282031261046757610464915f016101ba565b90565b6100dc565b3461049c5761049861048761048236600461044e565b610809565b61048f6100d2565b91829182610286565b0390f35b6100d8565b346104d1576104b13660046100e0565b6104cd6104bc610827565b6104c46100d2565b91829182610142565b0390f35b6100d8565b34610507576105036104f26104ec3660046101ef565b9061083d565b6104fa6100d2565b9182918261022e565b0390f35b6100d8565b91906040838203126105345780610528610531925f86016101ba565b936020016101ba565b90565b6100dc565b3461056a5761056661055561054f36600461050c565b90610875565b61055d6100d2565b91829182610286565b0390f35b6100d8565b5f80fd5b606090565b634e487b7160e01b5f52602260045260245ffd5b90600160028304921680156105ac575b60208310146105a757565b610578565b91607f169161059c565b60209181520190565b5f5260205f2090565b905f92918054906105e26105db8361058c565b80946105b6565b916001811690815f1461063957506001146105fd575b505050565b61060a91929394506105bf565b915f925b81841061062157505001905f80806105f8565b6001816020929593955484860152019101929061060e565b92949550505060ff19168252151560200201905f80806105f8565b9061065e916105c8565b90565b634e487b7160e01b5f52604160045260245ffd5b9061067f90610107565b810190811067ffffffffffffffff82111761069957604052565b610661565b906106be6106b7926106ae6100d2565b93848092610654565b0383610675565b565b6106c99061069e565b90565b6106d4610573565b506106df60036106c0565b90565b5f90565b610703916106f26106e2565b506106fb6108a1565b9190916108ae565b600190565b5f90565b5f1c90565b90565b6107206107259161070c565b610711565b90565b6107329054610714565b90565b61073d610708565b506107486002610728565b90565b91610775926107586106e2565b5061076d6107646108a1565b8290849161090b565b9190916109d7565b600190565b5f90565b90565b61079561079061079a9261077e565b610343565b6103b8565b90565b6107a561077a565b506107b06012610781565b90565b906107bd91610a74565b565b6107d36107ce6107d89261018f565b610343565b61018f565b90565b6107e4906107bf565b90565b6107f0906107db565b90565b906107fd906107e7565b5f5260205260405f2090565b61081f61082491610818610708565b505f6107f3565b610728565b90565b61082f610573565b5061083a60046106c0565b90565b61085a916108496106e2565b506108526108a1565b9190916109d7565b600190565b90610869906107e7565b5f5260205260405f2090565b61089a9161089061089592610888610708565b50600161085f565b6107f3565b610728565b90565b5f90565b6108a961089d565b503390565b916108bc9291600192610b2c565b565b6108c79061019a565b9052565b6040906108f46108fb94969593966108ea60608401985f8501906108be565b6020830190610279565b0190610279565b565b9061090891036101c9565b90565b929192610919818390610875565b908161092e6109285f196101c9565b916101c9565b1061093b575b5050509050565b8161094e610948876101c9565b916101c9565b106109745761096b93946109639193926108fd565b905f92610b2c565b805f8080610934565b50610993849291925f938493637dc7a0d960e11b8552600485016108cb565b0390fd5b90565b6109ae6109a96109b392610997565b610343565b61018f565b90565b6109bf9061099a565b90565b91906109d5905f602085019401906108be565b565b91826109f36109ed6109e85f6109b6565b61019a565b9161019a565b14610a4d5781610a13610a0d610a085f6109b6565b61019a565b9161019a565b14610a2657610a2492919091610c82565b565b610a49610a325f6109b6565b5f91829163ec442f0560e01b8352600483016109c2565b0390fd5b610a70610a595f6109b6565b5f918291634b637e8f60e11b8352600483016109c2565b0390fd5b80610a8f610a89610a845f6109b6565b61019a565b9161019a565b14610aab57610aa991610aa15f6109b6565b919091610c82565b565b610ace610ab75f6109b6565b5f91829163ec442f0560e01b8352600483016109c2565b0390fd5b5f1b90565b90610ae35f1991610ad2565b9181191691161790565b610b01610afc610b06926101c9565b610343565b6101c9565b90565b90565b90610b21610b1c610b2892610aed565b610b09565b8254610ad7565b9055565b909281610b49610b43610b3e5f6109b6565b61019a565b9161019a565b14610c145783610b69610b63610b5e5f6109b6565b61019a565b9161019a565b14610bed57610b8d83610b88610b816001869061085f565b87906107f3565b610b0c565b610b97575b505050565b919091610be2610bd0610bca7f8c5be1e5ebec7d5bd14f71427d1e84f3dd0314c0f7b2291e5b200ac8c7c3b925936107e7565b936107e7565b93610bd96100d2565b91829182610286565b0390a35f8080610b92565b610c10610bf95f6109b6565b5f918291634a1406b160e11b8352600483016109c2565b0390fd5b610c37610c205f6109b6565b5f91829163e602df0560e01b8352600483016109c2565b0390fd5b634e487b7160e01b5f52601160045260245ffd5b610c5e610c64919392936101c9565b926101c9565b8201809211610c6f57565b610c3b565b90610c7f91016101c9565b90565b91909180610ca0610c9a610c955f6109b6565b61019a565b9161019a565b145f14610d8157610cc4610cbd83610cb86002610728565b610c4f565b6002610b0c565b5b82610ce0610cda610cd55f6109b6565b61019a565b9161019a565b145f14610d5557610d04610cfd83610cf86002610728565b6108fd565b6002610b0c565b5b919091610d50610d3e610d387fddf252ad1be2c89b69c2b068fc378daa952ba7f163c4a11628f55a4df523b3ef936107e7565b936107e7565b93610d476100d2565b91829182610286565b0390a3565b610d7c82610d76610d675f87906107f3565b91610d7183610728565b610c74565b90610b0c565b610d05565b610d94610d8f5f83906107f3565b610728565b80610da7610da1856101c9565b916101c9565b10610dcf57610dba610dca9184906108fd565b610dc55f84906107f3565b610b0c565b610cc5565b90610ded9091925f93849363391434e360e21b8552600485016108cb565b0390fdfea26469706673582212205a7a6b9cf02214717b48fdff10cbcc3d272822e0f6745a74b79b0486e323f29764736f6c634300081c0033",
          "opcodes": "PUSH1 0x80 PUSH1 0x40 MSTORE CALLVALUE PUSH2 0x27 JUMPI PUSH2 0x11 PUSH2 0x199 JUMP JUMPDEST PUSH2 0x19 PUSH2 0x2C JUMP JUMPDEST PUSH2 0xE27 PUSH2 0x7B8 DUP3 CODECOPY PUSH2 0xE27 SWAP1 RETURN JUMPDEST PUSH2 0x32 JUMP JUMPDEST PUSH1 0x40 MLOAD SWAP1 JUMP JUMPDEST PUSH0 DUP1 REVERT JUMPDEST PUSH1 0x1F DUP1 NOT SWAP2 ADD AND SWAP1 JUMP JUMPDEST PUSH4 0x4E487B71 PUSH1 0xE0 SHL PUSH0 MSTORE PUSH1 0x41 PUSH1 0x4 MSTORE PUSH1 0x24 PUSH0 REVERT JUMPDEST SWAP1 PUSH2 0x5E SWAP1 PUSH2 0x36 JUMP JUMPDEST DUP2 ADD SWAP1 DUP2 LT PUSH1 0x1 DUP1 PUSH1 0x40 SHL SUB DUP3 GT OR PUSH2 0x76 JUMPI PUSH1 0x40 MSTORE JUMP JUMPDEST PUSH2 0x40 JUMP JUMPDEST SWAP1 PUSH2 0x8E PUSH2 0x87 PUSH2 0x2C JUMP JUMPDEST SWAP3 DUP4 PUSH2 0x54 JUMP JUMPDEST JUMP JUMPDEST PUSH1 0x1 DUP1 PUSH1 0x40 SHL SUB DUP2 GT PUSH2 0xAC JUMPI PUSH2 0xA8 PUSH1 0x20 SWAP2 PUSH2 0x36 JUMP JUMPDEST ADD SWAP1 JUMP JUMPDEST PUSH2 0x40 JUMP JUMPDEST SWAP1 PUSH2 0xC3 PUSH2 0xBE DUP4 PUSH2 0x90 JUMP JUMPDEST PUSH2 0x7B JUMP JUMPDEST SWAP2 DUP3 MSTORE JUMP JUMPDEST PUSH0 PUSH32 0x4D6F636B20546F6B656E00000000000000000000000000000000000000000000 SWAP2 ADD MSTORE JUMP JUMPDEST PUSH2 0xF9 PUSH1 0xA PUSH2 0xB1 JUMP JUMPDEST SWAP1 PUSH2 0x106 PUSH1 0x20 DUP4 ADD PUSH2 0xC8 JUMP JUMPDEST JUMP JUMPDEST PUSH2 0x110 PUSH2 0xEF JUMP JUMPDEST SWAP1 JUMP JUMPDEST PUSH0 PUSH32 0x4D434B0000000000000000000000000000000000000000000000000000000000 SWAP2 ADD MSTORE JUMP JUMPDEST PUSH2 0x144 PUSH1 0x3 PUSH2 0xB1 JUMP JUMPDEST SWAP1 PUSH2 0x151 PUSH1 0x20 DUP4 ADD PUSH2 0x113 JUMP JUMPDEST JUMP JUMPDEST PUSH2 0x15B PUSH2 0x13A JUMP JUMPDEST SWAP1 JUMP JUMPDEST SWAP1 JUMP JUMPDEST SWAP1 JUMP JUMPDEST SWAP1 JUMP JUMPDEST PUSH2 0x17B PUSH2 0x176 PUSH2 0x180 SWAP3 PUSH2 0x15E JUMP JUMPDEST PUSH2 0x164 JUMP JUMPDEST PUSH2 0x161 JUMP JUMPDEST SWAP1 JUMP JUMPDEST PUSH2 0x196 PUSH10 0xD3C21BCECCEDA1000000 PUSH2 0x167 JUMP JUMPDEST SWAP1 JUMP JUMPDEST PUSH2 0x1B2 PUSH2 0x1A4 PUSH2 0x108 JUMP JUMPDEST PUSH2 0x1AC PUSH2 0x153 JUMP JUMPDEST SWAP1 PUSH2 0x417 JUMP JUMPDEST PUSH2 0x1C4 CALLER PUSH2 0x1BE PUSH2 0x183 JUMP JUMPDEST SWAP1 PUSH2 0x493 JUMP JUMPDEST JUMP JUMPDEST MLOAD SWAP1 JUMP JUMPDEST PUSH4 0x4E487B71 PUSH1 0xE0 SHL PUSH0 MSTORE PUSH1 0x22 PUSH1 0x4 MSTORE PUSH1 0x24 PUSH0 REVERT JUMPDEST SWAP1 PUSH1 0x1 PUSH1 0x2 DUP4 DIV SWAP3 AND DUP1 ISZERO PUSH2 0x1FE JUMPI JUMPDEST PUSH1 0x20 DUP4 LT EQ PUSH2 0x1F9 JUMPI JUMP JUMPDEST PUSH2 0x1CA JUMP JUMPDEST SWAP2 PUSH1 0x7F AND SWAP2 PUSH2 0x1EE JUMP JUMPDEST PUSH0 MSTORE PUSH1 0x20 PUSH0 KECCAK256 SWAP1 JUMP JUMPDEST PUSH1 0x1F PUSH1 0x20 SWAP2 ADD DIV SWAP1 JUMP JUMPDEST SHL SWAP1 JUMP JUMPDEST SWAP2 SWAP1 PUSH1 0x8 PUSH2 0x23A SWAP2 MUL SWAP2 PUSH2 0x234 PUSH0 NOT DUP5 PUSH2 0x21B JUMP JUMPDEST SWAP3 PUSH2 0x21B JUMP JUMPDEST SWAP2 DUP2 NOT AND SWAP2 AND OR SWAP1 JUMP JUMPDEST PUSH2 0x258 PUSH2 0x253 PUSH2 0x25D SWAP3 PUSH2 0x161 JUMP JUMPDEST PUSH2 0x164 JUMP JUMPDEST PUSH2 0x161 JUMP JUMPDEST SWAP1 JUMP JUMPDEST SWAP1 JUMP JUMPDEST SWAP2 SWAP1 PUSH2 0x279 PUSH2 0x274 PUSH2 0x281 SWAP4 PUSH2 0x244 JUMP JUMPDEST PUSH2 0x260 JUMP JUMPDEST SWAP1 DUP4 SLOAD PUSH2 0x21F JUMP JUMPDEST SWAP1 SSTORE JUMP JUMPDEST PUSH0 SWAP1 JUMP JUMPDEST PUSH2 0x29B SWAP2 PUSH2 0x295 PUSH2 0x285 JUMP JUMPDEST SWAP2 PUSH2 0x263 JUMP JUMPDEST JUMP JUMPDEST JUMPDEST DUP2 DUP2 LT PUSH2 0x2A9 JUMPI POP POP JUMP JUMPDEST DUP1 PUSH2 0x2B6 PUSH0 PUSH1 0x1 SWAP4 PUSH2 0x289 JUMP JUMPDEST ADD PUSH2 0x29E JUMP JUMPDEST SWAP2 SWAP1 PUSH1 0x1F DUP2 GT PUSH2 0x2CC JUMPI JUMPDEST POP POP POP JUMP JUMPDEST PUSH2 0x2D8 PUSH2 0x2FD SWAP4 PUSH2 0x208 JUMP JUMPDEST SWAP1 PUSH1 0x20 PUSH2 0x2E4 DUP5 PUSH2 0x211 JUMP JUMPDEST DUP4 ADD SWAP4 LT PUSH2 0x305 JUMPI JUMPDEST PUSH2 0x2F6 SWAP1 PUSH2 0x211 JUMP JUMPDEST ADD SWAP1 PUSH2 0x29D JUMP JUMPDEST PUSH0 DUP1 DUP1 PUSH2 0x2C7 JUMP JUMPDEST SWAP2 POP PUSH2 0x2F6 DUP2 SWAP3 SWAP1 POP PUSH2 0x2ED JUMP JUMPDEST SHR SWAP1 JUMP JUMPDEST SWAP1 PUSH2 0x327 SWAP1 PUSH0 NOT SWAP1 PUSH1 0x8 MUL PUSH2 0x313 JUMP JUMPDEST NOT AND SWAP1 JUMP JUMPDEST DUP2 PUSH2 0x336 SWAP2 PUSH2 0x317 JUMP JUMPDEST SWAP1 PUSH1 0x2 MUL OR SWAP1 JUMP JUMPDEST SWAP1 PUSH2 0x348 DUP2 PUSH2 0x1C6 JUMP JUMPDEST SWAP1 PUSH1 0x1 DUP1 PUSH1 0x40 SHL SUB DUP3 GT PUSH2 0x406 JUMPI PUSH2 0x36A DUP3 PUSH2 0x364 DUP6 SLOAD PUSH2 0x1DE JUMP JUMPDEST DUP6 PUSH2 0x2BC JUMP JUMPDEST PUSH1 0x20 SWAP1 PUSH1 0x1F DUP4 GT PUSH1 0x1 EQ PUSH2 0x39E JUMPI SWAP2 DUP1 SWAP2 PUSH2 0x38D SWAP4 PUSH0 SWAP3 PUSH2 0x392 JUMPI JUMPDEST POP POP PUSH2 0x32C JUMP JUMPDEST SWAP1 SSTORE JUMPDEST JUMP JUMPDEST SWAP1 SWAP2 POP ADD MLOAD PUSH0 DUP1 PUSH2 0x386 JUMP JUMPDEST PUSH1 0x1F NOT DUP4 AND SWAP2 PUSH2 0x3AD DUP6 PUSH2 0x208 JUMP JUMPDEST SWAP3 PUSH0 JUMPDEST DUP2 DUP2 LT PUSH2 0x3EE JUMPI POP SWAP2 PUSH1 0x2 SWAP4 SWAP2 DUP6 PUSH1 0x1 SWAP7 SWAP5 LT PUSH2 0x3D4 JUMPI JUMPDEST POP POP POP MUL ADD SWAP1 SSTORE PUSH2 0x390 JUMP JUMPDEST PUSH2 0x3E4 SWAP2 ADD MLOAD PUSH1 0x1F DUP5 AND SWAP1 PUSH2 0x317 JUMP JUMPDEST SWAP1 SSTORE PUSH0 DUP1 DUP1 PUSH2 0x3C8 JUMP JUMPDEST SWAP2 SWAP4 PUSH1 0x20 PUSH1 0x1 DUP2 SWAP3 DUP8 DUP8 ADD MLOAD DUP2 SSTORE ADD SWAP6 ADD SWAP3 ADD PUSH2 0x3B0 JUMP JUMPDEST PUSH2 0x40 JUMP JUMPDEST SWAP1 PUSH2 0x415 SWAP2 PUSH2 0x33E JUMP JUMPDEST JUMP JUMPDEST SWAP1 PUSH2 0x426 PUSH2 0x42D SWAP3 PUSH1 0x3 PUSH2 0x40B JUMP JUMPDEST PUSH1 0x4 PUSH2 0x40B JUMP JUMPDEST JUMP JUMPDEST SWAP1 JUMP JUMPDEST PUSH1 0x1 DUP1 PUSH1 0xA0 SHL SUB AND SWAP1 JUMP JUMPDEST PUSH2 0x451 PUSH2 0x44C PUSH2 0x456 SWAP3 PUSH2 0x42F JUMP JUMPDEST PUSH2 0x164 JUMP JUMPDEST PUSH2 0x432 JUMP JUMPDEST SWAP1 JUMP JUMPDEST PUSH2 0x462 SWAP1 PUSH2 0x43D JUMP JUMPDEST SWAP1 JUMP JUMPDEST PUSH2 0x46E SWAP1 PUSH2 0x432 JUMP JUMPDEST SWAP1 JUMP JUMPDEST PUSH2 0x47A SWAP1 PUSH2 0x465 JUMP JUMPDEST SWAP1 MSTORE JUMP JUMPDEST SWAP2 SWAP1 PUSH2 0x491 SWAP1 PUSH0 PUSH1 0x20 DUP6 ADD SWAP5 ADD SWAP1 PUSH2 0x471 JUMP JUMPDEST JUMP JUMPDEST DUP1 PUSH2 0x4AE PUSH2 0x4A8 PUSH2 0x4A3 PUSH0 PUSH2 0x459 JUMP JUMPDEST PUSH2 0x465 JUMP JUMPDEST SWAP2 PUSH2 0x465 JUMP JUMPDEST EQ PUSH2 0x4CA JUMPI PUSH2 0x4C8 SWAP2 PUSH2 0x4C0 PUSH0 PUSH2 0x459 JUMP JUMPDEST SWAP2 SWAP1 SWAP2 PUSH2 0x648 JUMP JUMPDEST JUMP JUMPDEST PUSH2 0x4ED PUSH2 0x4D6 PUSH0 PUSH2 0x459 JUMP JUMPDEST PUSH0 SWAP2 DUP3 SWAP2 PUSH4 0xEC442F05 PUSH1 0xE0 SHL DUP4 MSTORE PUSH1 0x4 DUP4 ADD PUSH2 0x47E JUMP JUMPDEST SUB SWAP1 REVERT JUMPDEST PUSH2 0x505 PUSH2 0x500 PUSH2 0x50A SWAP3 PUSH2 0x432 JUMP JUMPDEST PUSH2 0x164 JUMP JUMPDEST PUSH2 0x432 JUMP JUMPDEST SWAP1 JUMP JUMPDEST PUSH2 0x516 SWAP1 PUSH2 0x4F1 JUMP JUMPDEST SWAP1 JUMP JUMPDEST PUSH2 0x522 SWAP1 PUSH2 0x50D JUMP JUMPDEST SWAP1 JUMP JUMPDEST SWAP1 PUSH2 0x52F SWAP1 PUSH2 0x519 JUMP JUMPDEST PUSH0 MSTORE PUSH1 0x20 MSTORE PUSH1 0x40 PUSH0 KECCAK256 SWAP1 JUMP JUMPDEST PUSH0 SHR SWAP1 JUMP JUMPDEST SWAP1 JUMP JUMPDEST PUSH2 0x54F PUSH2 0x554 SWAP2 PUSH2 0x53B JUMP JUMPDEST PUSH2 0x540 JUMP JUMPDEST SWAP1 JUMP JUMPDEST PUSH2 0x561 SWAP1 SLOAD PUSH2 0x543 JUMP JUMPDEST SWAP1 JUMP JUMPDEST PUSH2 0x56D SWAP1 PUSH2 0x161 JUMP JUMPDEST SWAP1 MSTORE JUMP JUMPDEST PUSH1 0x40 SWAP1 PUSH2 0x59A PUSH2 0x5A1 SWAP5 SWAP7 SWAP6 SWAP4 SWAP7 PUSH2 0x590 PUSH1 0x60 DUP5 ADD SWAP9 PUSH0 DUP6 ADD SWAP1 PUSH2 0x471 JUMP JUMPDEST PUSH1 0x20 DUP4 ADD SWAP1 PUSH2 0x564 JUMP JUMPDEST ADD SWAP1 PUSH2 0x564 JUMP JUMPDEST JUMP JUMPDEST SWAP1 PUSH2 0x5AE SWAP2 SUB PUSH2 0x161 JUMP JUMPDEST SWAP1 JUMP JUMPDEST PUSH0 SHL SWAP1 JUMP JUMPDEST SWAP1 PUSH2 0x5C2 PUSH0 NOT SWAP2 PUSH2 0x5B1 JUMP JUMPDEST SWAP2 DUP2 NOT AND SWAP2 AND OR SWAP1 JUMP JUMPDEST SWAP1 PUSH2 0x5E1 PUSH2 0x5DC PUSH2 0x5E8 SWAP3 PUSH2 0x244 JUMP JUMPDEST PUSH2 0x260 JUMP JUMPDEST DUP3 SLOAD PUSH2 0x5B6 JUMP JUMPDEST SWAP1 SSTORE JUMP JUMPDEST PUSH4 0x4E487B71 PUSH1 0xE0 SHL PUSH0 MSTORE PUSH1 0x11 PUSH1 0x4 MSTORE PUSH1 0x24 PUSH0 REVERT JUMPDEST PUSH2 0x60F PUSH2 0x615 SWAP2 SWAP4 SWAP3 SWAP4 PUSH2 0x161 JUMP JUMPDEST SWAP3 PUSH2 0x161 JUMP JUMPDEST DUP3 ADD DUP1 SWAP3 GT PUSH2 0x620 JUMPI JUMP JUMPDEST PUSH2 0x5EC JUMP JUMPDEST SWAP1 PUSH2 0x630 SWAP2 ADD PUSH2 0x161 JUMP JUMPDEST SWAP1 JUMP JUMPDEST SWAP2 SWAP1 PUSH2 0x646 SWAP1 PUSH0 PUSH1 0x20 DUP6 ADD SWAP5 ADD SWAP1 PUSH2 0x564 JUMP JUMPDEST JUMP JUMPDEST SWAP2 SWAP1 SWAP2 DUP1 PUSH2 0x666 PUSH2 0x660 PUSH2 0x65B PUSH0 PUSH2 0x459 JUMP JUMPDEST PUSH2 0x465 JUMP JUMPDEST SWAP2 PUSH2 0x465 JUMP JUMPDEST EQ PUSH0 EQ PUSH2 0x747 JUMPI PUSH2 0x68A PUSH2 0x683 DUP4 PUSH2 0x67E PUSH1 0x2 PUSH2 0x557 JUMP JUMPDEST PUSH2 0x600 JUMP JUMPDEST PUSH1 0x2 PUSH2 0x5CC JUMP JUMPDEST JUMPDEST DUP3 PUSH2 0x6A6 PUSH2 0x6A0 PUSH2 0x69B PUSH0 PUSH2 0x459 JUMP JUMPDEST PUSH2 0x465 JUMP JUMPDEST SWAP2 PUSH2 0x465 JUMP JUMPDEST EQ PUSH0 EQ PUSH2 0x71B JUMPI PUSH2 0x6CA PUSH2 0x6C3 DUP4 PUSH2 0x6BE PUSH1 0x2 PUSH2 0x557 JUMP JUMPDEST PUSH2 0x5A3 JUMP JUMPDEST PUSH1 0x2 PUSH2 0x5CC JUMP JUMPDEST JUMPDEST SWAP2 SWAP1 SWAP2 PUSH2 0x716 PUSH2 0x704 PUSH2 0x6FE PUSH32 0xDDF252AD1BE2C89B69C2B068FC378DAA952BA7F163C4A11628F55A4DF523B3EF SWAP4 PUSH2 0x519 JUMP JUMPDEST SWAP4 PUSH2 0x519 JUMP JUMPDEST SWAP4 PUSH2 0x70D PUSH2 0x2C JUMP JUMPDEST SWAP2 DUP3 SWAP2 DUP3 PUSH2 0x633 JUMP JUMPDEST SUB SWAP1 LOG3 JUMP JUMPDEST PUSH2 0x742 DUP3 PUSH2 0x73C PUSH2 0x72D PUSH0 DUP8 SWAP1 PUSH2 0x525 JUMP JUMPDEST SWAP2 PUSH2 0x737 DUP4 PUSH2 0x557 JUMP JUMPDEST PUSH2 0x625 JUMP JUMPDEST SWAP1 PUSH2 0x5CC JUMP JUMPDEST PUSH2 0x6CB JUMP JUMPDEST PUSH2 0x75A PUSH2 0x755 PUSH0 DUP4 SWAP1 PUSH2 0x525 JUMP JUMPDEST PUSH2 0x557 JUMP JUMPDEST DUP1 PUSH2 0x76D PUSH2 0x767 DUP6 PUSH2 0x161 JUMP JUMPDEST SWAP2 PUSH2 0x161 JUMP JUMPDEST LT PUSH2 0x795 JUMPI PUSH2 0x780 PUSH2 0x790 SWAP2 DUP5 SWAP1 PUSH2 0x5A3 JUMP JUMPDEST PUSH2 0x78B PUSH0 DUP5 SWAP1 PUSH2 0x525 JUMP JUMPDEST PUSH2 0x5CC JUMP JUMPDEST PUSH2 0x68B JUMP JUMPDEST SWAP1 PUSH2 0x7B3 SWAP1 SWAP2 SWAP3 PUSH0 SWAP4 DUP5 SWAP4 PUSH4 0x391434E3 PUSH1 0xE2 SHL DUP6 MSTORE PUSH1 0x4 DUP6 ADD PUSH2 0x571 JUMP JUMPDEST SUB SWAP1 REVERT INVALID PUSH1 0x80 PUSH1 0x40 MSTORE PUSH1 0x4 CALLDATASIZE LT ISZERO PUSH2 0x13 JUMPI JUMPDEST PUSH2 0x56F JUMP JUMPDEST PUSH2 0x1D PUSH0 CALLDATALOAD PUSH2 0xCC JUMP JUMPDEST DUP1 PUSH4 0x6FDDE03 EQ PUSH2 0xC7 JUMPI DUP1 PUSH4 0x95EA7B3 EQ PUSH2 0xC2 JUMPI DUP1 PUSH4 0x18160DDD EQ PUSH2 0xBD JUMPI DUP1 PUSH4 0x23B872DD EQ PUSH2 0xB8 JUMPI DUP1 PUSH4 0x2FF2E9DC EQ PUSH2 0xB3 JUMPI DUP1 PUSH4 0x313CE567 EQ PUSH2 0xAE JUMPI DUP1 PUSH4 0x40C10F19 EQ PUSH2 0xA9 JUMPI DUP1 PUSH4 0x70A08231 EQ PUSH2 0xA4 JUMPI DUP1 PUSH4 0x95D89B41 EQ PUSH2 0x9F JUMPI DUP1 PUSH4 0xA9059CBB EQ PUSH2 0x9A JUMPI PUSH4 0xDD62ED3E SUB PUSH2 0xE JUMPI PUSH2 0x539 JUMP JUMPDEST PUSH2 0x4D6 JUMP JUMPDEST PUSH2 0x4A1 JUMP JUMPDEST PUSH2 0x46C JUMP JUMPDEST PUSH2 0x41A JUMP JUMPDEST PUSH2 0x3E0 JUMP JUMPDEST PUSH2 0x383 JUMP JUMPDEST PUSH2 0x30A JUMP JUMPDEST PUSH2 0x29B JUMP JUMPDEST PUSH2 0x243 JUMP JUMPDEST PUSH2 0x15A JUMP JUMPDEST PUSH1 0xE0 SHR SWAP1 JUMP JUMPDEST PUSH1 0x40 MLOAD SWAP1 JUMP JUMPDEST PUSH0 DUP1 REVERT JUMPDEST PUSH0 DUP1 REVERT JUMPDEST PUSH0 SWAP2 SUB SLT PUSH2 0xEA JUMPI JUMP JUMPDEST PUSH2 0xDC JUMP JUMPDEST MLOAD SWAP1 JUMP JUMPDEST PUSH1 0x20 SWAP2 DUP2 MSTORE ADD SWAP1 JUMP JUMPDEST SWAP1 DUP3 PUSH0 SWAP4 SWAP3 DUP3 MCOPY ADD MSTORE JUMP JUMPDEST PUSH1 0x1F DUP1 NOT SWAP2 ADD AND SWAP1 JUMP JUMPDEST PUSH2 0x130 PUSH2 0x139 PUSH1 0x20 SWAP4 PUSH2 0x13E SWAP4 PUSH2 0x127 DUP2 PUSH2 0xEF JUMP JUMPDEST SWAP4 DUP5 DUP1 SWAP4 PUSH2 0xF3 JUMP JUMPDEST SWAP6 DUP7 SWAP2 ADD PUSH2 0xFC JUMP JUMPDEST PUSH2 0x107 JUMP JUMPDEST ADD SWAP1 JUMP JUMPDEST PUSH2 0x157 SWAP2 PUSH1 0x20 DUP3 ADD SWAP2 PUSH0 DUP2 DUP5 SUB SWAP2 ADD MSTORE PUSH2 0x111 JUMP JUMPDEST SWAP1 JUMP JUMPDEST CALLVALUE PUSH2 0x18A JUMPI PUSH2 0x16A CALLDATASIZE PUSH1 0x4 PUSH2 0xE0 JUMP JUMPDEST PUSH2 0x186 PUSH2 0x175 PUSH2 0x6CC JUMP JUMPDEST PUSH2 0x17D PUSH2 0xD2 JUMP JUMPDEST SWAP2 DUP3 SWAP2 DUP3 PUSH2 0x142 JUMP JUMPDEST SUB SWAP1 RETURN JUMPDEST PUSH2 0xD8 JUMP JUMPDEST PUSH1 0x1 DUP1 PUSH1 0xA0 SHL SUB AND SWAP1 JUMP JUMPDEST PUSH2 0x1A3 SWAP1 PUSH2 0x18F JUMP JUMPDEST SWAP1 JUMP JUMPDEST PUSH2 0x1AF DUP2 PUSH2 0x19A JUMP JUMPDEST SUB PUSH2 0x1B6 JUMPI JUMP JUMPDEST PUSH0 DUP1 REVERT JUMPDEST SWAP1 POP CALLDATALOAD SWAP1 PUSH2 0x1C7 DUP3 PUSH2 0x1A6 JUMP JUMPDEST JUMP JUMPDEST SWAP1 JUMP JUMPDEST PUSH2 0x1D5 DUP2 PUSH2 0x1C9 JUMP JUMPDEST SUB PUSH2 0x1DC JUMPI JUMP JUMPDEST PUSH0 DUP1 REVERT JUMPDEST SWAP1 POP CALLDATALOAD SWAP1 PUSH2 0x1ED DUP3 PUSH2 0x1CC JUMP JUMPDEST JUMP JUMPDEST SWAP2 SWAP1 PUSH1 0x40 DUP4 DUP3 SUB SLT PUSH2 0x217 JUMPI DUP1 PUSH2 0x20B PUSH2 0x214 SWAP3 PUSH0 DUP7 ADD PUSH2 0x1BA JUMP JUMPDEST SWAP4 PUSH1 0x20 ADD PUSH2 0x1E0 JUMP JUMPDEST SWAP1 JUMP JUMPDEST PUSH2 0xDC JUMP JUMPDEST ISZERO ISZERO SWAP1 JUMP JUMPDEST PUSH2 0x22A SWAP1 PUSH2 0x21C JUMP JUMPDEST SWAP1 MSTORE JUMP JUMPDEST SWAP2 SWAP1 PUSH2 0x241 SWAP1 PUSH0 PUSH1 0x20 DUP6 ADD SWAP5 ADD SWAP1 PUSH2 0x221 JUMP JUMPDEST JUMP JUMPDEST CALLVALUE PUSH2 0x274 JUMPI PUSH2 0x270 PUSH2 0x25F PUSH2 0x259 CALLDATASIZE PUSH1 0x4 PUSH2 0x1EF JUMP JUMPDEST SWAP1 PUSH2 0x6E6 JUMP JUMPDEST PUSH2 0x267 PUSH2 0xD2 JUMP JUMPDEST SWAP2 DUP3 SWAP2 DUP3 PUSH2 0x22E JUMP JUMPDEST SUB SWAP1 RETURN JUMPDEST PUSH2 0xD8 JUMP JUMPDEST PUSH2 0x282 SWAP1 PUSH2 0x1C9 JUMP JUMPDEST SWAP1 MSTORE JUMP JUMPDEST SWAP2 SWAP1 PUSH2 0x299 SWAP1 PUSH0 PUSH1 0x20 DUP6 ADD SWAP5 ADD SWAP1 PUSH2 0x279 JUMP JUMPDEST JUMP JUMPDEST CALLVALUE PUSH2 0x2CB JUMPI PUSH2 0x2AB CALLDATASIZE PUSH1 0x4 PUSH2 0xE0 JUMP JUMPDEST PUSH2 0x2C7 PUSH2 0x2B6 PUSH2 0x735 JUMP JUMPDEST PUSH2 0x2BE PUSH2 0xD2 JUMP JUMPDEST SWAP2 DUP3 SWAP2 DUP3 PUSH2 0x286 JUMP JUMPDEST SUB SWAP1 RETURN JUMPDEST PUSH2 0xD8 JUMP JUMPDEST SWAP1 SWAP2 PUSH1 0x60 DUP3 DUP5 SUB SLT PUSH2 0x305 JUMPI PUSH2 0x302 PUSH2 0x2EB DUP5 PUSH0 DUP6 ADD PUSH2 0x1BA JUMP JUMPDEST SWAP4 PUSH2 0x2F9 DUP2 PUSH1 0x20 DUP7 ADD PUSH2 0x1BA JUMP JUMPDEST SWAP4 PUSH1 0x40 ADD PUSH2 0x1E0 JUMP JUMPDEST SWAP1 JUMP JUMPDEST PUSH2 0xDC JUMP JUMPDEST CALLVALUE PUSH2 0x33B JUMPI PUSH2 0x337 PUSH2 0x326 PUSH2 0x320 CALLDATASIZE PUSH1 0x4 PUSH2 0x2D0 JUMP JUMPDEST SWAP2 PUSH2 0x74B JUMP JUMPDEST PUSH2 0x32E PUSH2 0xD2 JUMP JUMPDEST SWAP2 DUP3 SWAP2 DUP3 PUSH2 0x22E JUMP JUMPDEST SUB SWAP1 RETURN JUMPDEST PUSH2 0xD8 JUMP JUMPDEST SWAP1 JUMP JUMPDEST SWAP1 JUMP JUMPDEST PUSH2 0x35A PUSH2 0x355 PUSH2 0x35F SWAP3 PUSH2 0x340 JUMP JUMPDEST PUSH2 0x343 JUMP JUMPDEST PUSH2 0x1C9 JUMP JUMPDEST SWAP1 JUMP JUMPDEST PUSH2 0x375 PUSH10 0xD3C21BCECCEDA1000000 PUSH2 0x346 JUMP JUMPDEST SWAP1 JUMP JUMPDEST PUSH2 0x380 PUSH2 0x362 JUMP JUMPDEST SWAP1 JUMP JUMPDEST CALLVALUE PUSH2 0x3B3 JUMPI PUSH2 0x393 CALLDATASIZE PUSH1 0x4 PUSH2 0xE0 JUMP JUMPDEST PUSH2 0x3AF PUSH2 0x39E PUSH2 0x378 JUMP JUMPDEST PUSH2 0x3A6 PUSH2 0xD2 JUMP JUMPDEST SWAP2 DUP3 SWAP2 DUP3 PUSH2 0x286 JUMP JUMPDEST SUB SWAP1 RETURN JUMPDEST PUSH2 0xD8 JUMP JUMPDEST PUSH1 0xFF AND SWAP1 JUMP JUMPDEST PUSH2 0x3C7 SWAP1 PUSH2 0x3B8 JUMP JUMPDEST SWAP1 MSTORE JUMP JUMPDEST SWAP2 SWAP1 PUSH2 0x3DE SWAP1 PUSH0 PUSH1 0x20 DUP6 ADD SWAP5 ADD SWAP1 PUSH2 0x3BE JUMP JUMPDEST JUMP JUMPDEST CALLVALUE PUSH2 0x410 JUMPI PUSH2 0x3F0 CALLDATASIZE PUSH1 0x4 PUSH2 0xE0 JUMP JUMPDEST PUSH2 0x40C PUSH2 0x3FB PUSH2 0x79D JUMP JUMPDEST PUSH2 0x403 PUSH2 0xD2 JUMP JUMPDEST SWAP2 DUP3 SWAP2 DUP3 PUSH2 0x3CB JUMP JUMPDEST SUB SWAP1 RETURN JUMPDEST PUSH2 0xD8 JUMP JUMPDEST PUSH0 ADD SWAP1 JUMP JUMPDEST CALLVALUE PUSH2 0x449 JUMPI PUSH2 0x433 PUSH2 0x42D CALLDATASIZE PUSH1 0x4 PUSH2 0x1EF JUMP JUMPDEST SWAP1 PUSH2 0x7B3 JUMP JUMPDEST PUSH2 0x43B PUSH2 0xD2 JUMP JUMPDEST DUP1 PUSH2 0x445 DUP2 PUSH2 0x415 JUMP JUMPDEST SUB SWAP1 RETURN JUMPDEST PUSH2 0xD8 JUMP JUMPDEST SWAP1 PUSH1 0x20 DUP3 DUP3 SUB SLT PUSH2 0x467 JUMPI PUSH2 0x464 SWAP2 PUSH0 ADD PUSH2 0x1BA JUMP JUMPDEST SWAP1 JUMP JUMPDEST PUSH2 0xDC JUMP JUMPDEST CALLVALUE PUSH2 0x49C JUMPI PUSH2 0x498 PUSH2 0x487 PUSH2 0x482 CALLDATASIZE PUSH1 0x4 PUSH2 0x44E JUMP JUMPDEST PUSH2 0x809 JUMP JUMPDEST PUSH2 0x48F PUSH2 0xD2 JUMP JUMPDEST SWAP2 DUP3 SWAP2 DUP3 PUSH2 0x286 JUMP JUMPDEST SUB SWAP1 RETURN JUMPDEST PUSH2 0xD8 JUMP JUMPDEST CALLVALUE PUSH2 0x4D1 JUMPI PUSH2 0x4B1 CALLDATASIZE PUSH1 0x4 PUSH2 0xE0 JUMP JUMPDEST PUSH2 0x4CD PUSH2 0x4BC PUSH2 0x827 JUMP JUMPDEST PUSH2 0x4C4 PUSH2 0xD2 JUMP JUMPDEST SWAP2 DUP3 SWAP2 DUP3 PUSH2 0x142 JUMP JUMPDEST SUB SWAP1 RETURN JUMPDEST PUSH2 0xD8 JUMP JUMPDEST CALLVALUE PUSH2 0x507 JUMPI PUSH2 0x503 PUSH2 0x4F2 PUSH2 0x4EC CALLDATASIZE PUSH1 0x4 PUSH2 0x1EF JUMP JUMPDEST SWAP1 PUSH2 0x83D JUMP JUMPDEST PUSH2 0x4FA PUSH2 0xD2 JUMP JUMPDEST SWAP2 DUP3 SWAP2 DUP3 PUSH2 0x22E JUMP JUMPDEST SUB SWAP1 RETURN JUMPDEST PUSH2 0xD8 JUMP JUMPDEST SWAP2 SWAP1 PUSH1 0x40 DUP4 DUP3 SUB SLT PUSH2 0x534 JUMPI DUP1 PUSH2 0x528 PUSH2 0x531 SWAP3 PUSH0 DUP7 ADD PUSH2 0x1BA JUMP JUMPDEST SWAP4 PUSH1 0x20 ADD PUSH2 0x1BA JUMP JUMPDEST SWAP1 JUMP JUMPDEST PUSH2 0xDC JUMP JUMPDEST CALLVALUE PUSH2 0x56A JUMPI PUSH2 0x566 PUSH2 0x555 PUSH2 0x54F CALLDATASIZE PUSH1 0x4 PUSH2 0x50C JUMP JUMPDEST SWAP1 PUSH2 0x875 JUMP JUMPDEST PUSH2 0x55D PUSH2 0xD2 JUMP JUMPDEST SWAP2 DUP3 SWAP2 DUP3 PUSH2 0x286 JUMP JUMPDEST SUB SWAP1 RETURN JUMPDEST PUSH2 0xD8 JUMP JUMPDEST PUSH0 DUP1 REVERT JUMPDEST PUSH1 0x60 SWAP1 JUMP JUMPDEST PUSH4 0x4E487B71 PUSH1 0xE0 SHL PUSH0 MSTORE PUSH1 0x22 PUSH1 0x4 MSTORE PUSH1 0x24 PUSH0 REVERT JUMPDEST SWAP1 PUSH1 0x1 PUSH1 0x2 DUP4 DIV SWAP3 AND DUP1 ISZERO PUSH2 0x5AC JUMPI JUMPDEST PUSH1 0x20 DUP4 LT EQ PUSH2 0x5A7 JUMPI JUMP JUMPDEST PUSH2 0x578 JUMP JUMPDEST SWAP2 PUSH1 0x7F AND SWAP2 PUSH2 0x59C JUMP JUMPDEST PUSH1 0x20 SWAP2 DUP2 MSTORE ADD SWAP1 JUMP JUMPDEST PUSH0 MSTORE PUSH1 0x20 PUSH0 KECCAK256 SWAP1 JUMP JUMPDEST SWAP1 PUSH0 SWAP3 SWAP2 DUP1 SLOAD SWAP1 PUSH2 0x5E2 PUSH2 0x5DB DUP4 PUSH2 0x58C JUMP JUMPDEST DUP1 SWAP5 PUSH2 0x5B6 JUMP JUMPDEST SWAP2 PUSH1 0x1 DUP2 AND SWAP1 DUP2 PUSH0 EQ PUSH2 0x639 JUMPI POP PUSH1 0x1 EQ PUSH2 0x5FD JUMPI JUMPDEST POP POP POP JUMP JUMPDEST PUSH2 0x60A SWAP2 SWAP3 SWAP4 SWAP5 POP PUSH2 0x5BF JUMP JUMPDEST SWAP2 PUSH0 SWAP3 JUMPDEST DUP2 DUP5 LT PUSH2 0x621 JUMPI POP POP ADD SWAP1 PUSH0 DUP1 DUP1 PUSH2 0x5F8 JUMP JUMPDEST PUSH1 0x1 DUP2 PUSH1 0x20 SWAP3 SWAP6 SWAP4 SWAP6 SLOAD DUP5 DUP7 ADD MSTORE ADD SWAP2 ADD SWAP3 SWAP1 PUSH2 0x60E JUMP JUMPDEST SWAP3 SWAP5 SWAP6 POP POP POP PUSH1 0xFF NOT AND DUP3 MSTORE ISZERO ISZERO PUSH1 0x20 MUL ADD SWAP1 PUSH0 DUP1 DUP1 PUSH2 0x5F8 JUMP JUMPDEST SWAP1 PUSH2 0x65E SWAP2 PUSH2 0x5C8 JUMP JUMPDEST SWAP1 JUMP JUMPDEST PUSH4 0x4E487B71 PUSH1 0xE0 SHL PUSH0 MSTORE PUSH1 0x41 PUSH1 0x4 MSTORE PUSH1 0x24 PUSH0 REVERT JUMPDEST SWAP1 PUSH2 0x67F SWAP1 PUSH2 0x107 JUMP JUMPDEST DUP2 ADD SWAP1 DUP2 LT PUSH8 0xFFFFFFFFFFFFFFFF DUP3 GT OR PUSH2 0x699 JUMPI PUSH1 0x40 MSTORE JUMP JUMPDEST PUSH2 0x661 JUMP JUMPDEST SWAP1 PUSH2 0x6BE PUSH2 0x6B7 SWAP3 PUSH2 0x6AE PUSH2 0xD2 JUMP JUMPDEST SWAP4 DUP5 DUP1 SWAP3 PUSH2 0x654 JUMP JUMPDEST SUB DUP4 PUSH2 0x675 JUMP JUMPDEST JUMP JUMPDEST PUSH2 0x6C9 SWAP1 PUSH2 0x69E JUMP JUMPDEST SWAP1 JUMP JUMPDEST PUSH2 0x6D4 PUSH2 0x573 JUMP JUMPDEST POP PUSH2 0x6DF PUSH1 0x3 PUSH2 0x6C0 JUMP JUMPDEST SWAP1 JUMP JUMPDEST PUSH0 SWAP1 JUMP JUMPDEST PUSH2 0x703 SWAP2 PUSH2 0x6F2 PUSH2 0x6E2 JUMP JUMPDEST POP PUSH2 0x6FB PUSH2 0x8A1 JUMP JUMPDEST SWAP2 SWAP1 SWAP2 PUSH2 0x8AE JUMP JUMPDEST PUSH1 0x1 SWAP1 JUMP JUMPDEST PUSH0 SWAP1 JUMP JUMPDEST PUSH0 SHR SWAP1 JUMP JUMPDEST SWAP1 JUMP JUMPDEST PUSH2 0x720 PUSH2 0x725 SWAP2 PUSH2 0x70C JUMP JUMPDEST PUSH2 0x711 JUMP JUMPDEST SWAP1 JUMP JUMPDEST PUSH2 0x732 SWAP1 SLOAD PUSH2 0x714 JUMP JUMPDEST SWAP1 JUMP JUMPDEST PUSH2 0x73D PUSH2 0x708 JUMP JUMPDEST POP PUSH2 0x748 PUSH1 0x2 PUSH2 0x728 JUMP JUMPDEST SWAP1 JUMP JUMPDEST SWAP2 PUSH2 0x775 SWAP3 PUSH2 0x758 PUSH2 0x6E2 JUMP JUMPDEST POP PUSH2 0x76D PUSH2 0x764 PUSH2 0x8A1 JUMP JUMPDEST DUP3 SWAP1 DUP5 SWAP2 PUSH2 0x90B JUMP JUMPDEST SWAP2 SWAP1 SWAP2 PUSH2 0x9D7 JUMP JUMPDEST PUSH1 0x1 SWAP1 JUMP JUMPDEST PUSH0 SWAP1 JUMP JUMPDEST SWAP1 JUMP JUMPDEST PUSH2 0x795 PUSH2 0x790 PUSH2 0x79A SWAP3 PUSH2 0x77E JUMP JUMPDEST PUSH2 0x343 JUMP JUMPDEST PUSH2 0x3B8 JUMP JUMPDEST SWAP1 JUMP JUMPDEST PUSH2 0x7A5 PUSH2 0x77A JUMP JUMPDEST POP PUSH2 0x7B0 PUSH1 0x12 PUSH2 0x781 JUMP JUMPDEST SWAP1 JUMP JUMPDEST SWAP1 PUSH2 0x7BD SWAP2 PUSH2 0xA74 JUMP JUMPDEST JUMP JUMPDEST PUSH2 0x7D3 PUSH2 0x7CE PUSH2 0x7D8 SWAP3 PUSH2 0x18F JUMP JUMPDEST PUSH2 0x343 JUMP JUMPDEST PUSH2 0x18F JUMP JUMPDEST SWAP1 JUMP JUMPDEST PUSH2 0x7E4 SWAP1 PUSH2 0x7BF JUMP JUMPDEST SWAP1 JUMP JUMPDEST PUSH2 0x7F0 SWAP1 PUSH2 0x7DB JUMP JUMPDEST SWAP1 JUMP JUMPDEST SWAP1 PUSH2 0x7FD SWAP1 PUSH2 0x7E7 JUMP JUMPDEST PUSH0 MSTORE PUSH1 0x20 MSTORE PUSH1 0x40 PUSH0 KECCAK256 SWAP1 JUMP JUMPDEST PUSH2 0x81F PUSH2 0x824 SWAP2 PUSH2 0x818 PUSH2 0x708 JUMP JUMPDEST POP PUSH0 PUSH2 0x7F3 JUMP JUMPDEST PUSH2 0x728 JUMP JUMPDEST SWAP1 JUMP JUMPDEST PUSH2 0x82F PUSH2 0x573 JUMP JUMPDEST POP PUSH2 0x83A PUSH1 0x4 PUSH2 0x6C0 JUMP JUMPDEST SWAP1 JUMP JUMPDEST PUSH2 0x85A SWAP2 PUSH2 0x849 PUSH2 0x6E2 JUMP JUMPDEST POP PUSH2 0x852 PUSH2 0x8A1 JUMP JUMPDEST SWAP2 SWAP1 SWAP2 PUSH2 0x9D7 JUMP JUMPDEST PUSH1 0x1 SWAP1 JUMP JUMPDEST SWAP1 PUSH2 0x869 SWAP1 PUSH2 0x7E7 JUMP JUMPDEST PUSH0 MSTORE PUSH1 0x20 MSTORE PUSH1 0x40 PUSH0 KECCAK256 SWAP1 JUMP JUMPDEST PUSH2 0x89A SWAP2 PUSH2 0x890 PUSH2 0x895 SWAP3 PUSH2 0x888 PUSH2 0x708 JUMP JUMPDEST POP PUSH1 0x1 PUSH2 0x85F JUMP JUMPDEST PUSH2 0x7F3 JUMP JUMPDEST PUSH2 0x728 JUMP JUMPDEST SWAP1 JUMP JUMPDEST PUSH0 SWAP1 JUMP JUMPDEST PUSH2 0x8A9 PUSH2 0x89D JUMP JUMPDEST POP CALLER SWAP1 JUMP JUMPDEST SWAP2 PUSH2 0x8BC SWAP3 SWAP2 PUSH1 0x1 SWAP3 PUSH2 0xB2C JUMP JUMPDEST JUMP JUMPDEST PUSH2 0x8C7 SWAP1 PUSH2 0x19A JUMP JUMPDEST SWAP1 MSTORE JUMP JUMPDEST PUSH1 0x40 SWAP1 PUSH2 0x8F4 PUSH2 0x8FB SWAP5 SWAP7 SWAP6 SWAP4 SWAP7 PUSH2 0x8EA PUSH1 0x60 DUP5 ADD SWAP9 PUSH0 DUP6 ADD SWAP1 PUSH2 0x8BE JUMP JUMPDEST PUSH1 0x20 DUP4 ADD SWAP1 PUSH2 0x279 JUMP JUMPDEST ADD SWAP1 PUSH2 0x279 JUMP JUMPDEST JUMP JUMPDEST SWAP1 PUSH2 0x908 SWAP2 SUB PUSH2 0x1C9 JUMP JUMPDEST SWAP1 JUMP JUMPDEST SWAP3 SWAP2 SWAP3 PUSH2 0x919 DUP2 DUP4 SWAP1 PUSH2 0x875 JUMP JUMPDEST SWAP1 DUP2 PUSH2 0x92E PUSH2 0x928 PUSH0 NOT PUSH2 0x1C9 JUMP JUMPDEST SWAP2 PUSH2 0x1C9 JUMP JUMPDEST LT PUSH2 0x93B JUMPI JUMPDEST POP POP POP SWAP1 POP JUMP JUMPDEST DUP2 PUSH2 0x94E PUSH2 0x948 DUP8 PUSH2 0x1C9 JUMP JUMPDEST SWAP2 PUSH2 0x1C9 JUMP JUMPDEST LT PUSH2 0x974 JUMPI PUSH2 0x96B SWAP4 SWAP5 PUSH2 0x963 SWAP2 SWAP4 SWAP3 PUSH2 0x8FD JUMP JUMPDEST SWAP1 PUSH0 SWAP3 PUSH2 0xB2C JUMP JUMPDEST DUP1 PUSH0 DUP1 DUP1 PUSH2 0x934 JUMP JUMPDEST POP PUSH2 0x993 DUP5 SWAP3 SWAP2 SWAP3 PUSH0 SWAP4 DUP5 SWAP4 PUSH4 0x7DC7A0D9 PUSH1 0xE1 SHL DUP6 MSTORE PUSH1 0x4 DUP6 ADD PUSH2 0x8CB JUMP JUMPDEST SUB SWAP1 REVERT JUMPDEST SWAP1 JUMP JUMPDEST PUSH2 0x9AE PUSH2 0x9A9 PUSH2 0x9B3 SWAP3 PUSH2 0x997 JUMP JUMPDEST PUSH2 0x343 JUMP JUMPDEST PUSH2 0x18F JUMP JUMPDEST SWAP1 JUMP JUMPDEST PUSH2 0x9BF SWAP1 PUSH2 0x99A JUMP JUMPDEST SWAP1 JUMP JUMPDEST SWAP2 SWAP1 PUSH2 0x9D5 SWAP1 PUSH0 PUSH1 0x20 DUP6 ADD SWAP5 ADD SWAP1 PUSH2 0x8BE JUMP JUMPDEST JUMP JUMPDEST SWAP2 DUP3 PUSH2 0x9F3 PUSH2 0x9ED PUSH2 0x9E8 PUSH0 PUSH2 0x9B6 JUMP JUMPDEST PUSH2 0x19A JUMP JUMPDEST SWAP2 PUSH2 0x19A JUMP JUMPDEST EQ PUSH2 0xA4D JUMPI DUP2 PUSH2 0xA13 PUSH2 0xA0D PUSH2 0xA08 PUSH0 PUSH2 0x9B6 JUMP JUMPDEST PUSH2 0x19A JUMP JUMPDEST SWAP2 PUSH2 0x19A JUMP JUMPDEST EQ PUSH2 0xA26 JUMPI PUSH2 0xA24 SWAP3 SWAP2 SWAP1 SWAP2 PUSH2 0xC82 JUMP JUMPDEST JUMP JUMPDEST PUSH2 0xA49 PUSH2 0xA32 PUSH0 PUSH2 0x9B6 JUMP JUMPDEST PUSH0 SWAP2 DUP3 SWAP2 PUSH4 0xEC442F05 PUSH1 0xE0 SHL DUP4 MSTORE PUSH1 0x4 DUP4 ADD PUSH2 0x9C2 JUMP JUMPDEST SUB SWAP1 REVERT JUMPDEST PUSH2 0xA70 PUSH2 0xA59 PUSH0 PUSH2 0x9B6 JUMP JUMPDEST PUSH0 SWAP2 DUP3 SWAP2 PUSH4 0x4B637E8F PUSH1 0xE1 SHL DUP4 MSTORE PUSH1 0x4 DUP4 ADD PUSH2 0x9C2 JUMP JUMPDEST SUB SWAP1 REVERT JUMPDEST DUP1 PUSH2 0xA8F PUSH2 0xA89 PUSH2 0xA84 PUSH0 PUSH2 0x9B6 JUMP JUMPDEST PUSH2 0x19A JUMP JUMPDEST SWAP2 PUSH2 0x19A JUMP JUMPDEST EQ PUSH2 0xAAB JUMPI PUSH2 0xAA9 SWAP2 PUSH2 0xAA1 PUSH0 PUSH2 0x9B6 JUMP JUMPDEST SWAP2 SWAP1 SWAP2 PUSH2 0xC82 JUMP JUMPDEST JUMP JUMPDEST PUSH2 0xACE PUSH2 0xAB7 PUSH0 PUSH2 0x9B6 JUMP JUMPDEST PUSH0 SWAP2 DUP3 SWAP2 PUSH4 0xEC442F05 PUSH1 0xE0 SHL DUP4 MSTORE PUSH1 0x4 DUP4 ADD PUSH2 0x9C2 JUMP JUMPDEST SUB SWAP1 REVERT JUMPDEST PUSH0 SHL SWAP1 JUMP JUMPDEST SWAP1 PUSH2 0xAE3 PUSH0 NOT SWAP2 PUSH2 0xAD2 JUMP JUMPDEST SWAP2 DUP2 NOT AND SWAP2 AND OR SWAP1 JUMP JUMPDEST PUSH2 0xB01 PUSH2 0xAFC PUSH2 0xB06 SWAP3 PUSH2 0x1C9 JUMP JUMPDEST PUSH2 0x343 JUMP JUMPDEST PUSH2 0x1C9 JUMP JUMPDEST SWAP1 JUMP JUMPDEST SWAP1 JUMP JUMPDEST SWAP1 PUSH2 0xB21 PUSH2 0xB1C PUSH2 0xB28 SWAP3 PUSH2 0xAED JUMP JUMPDEST PUSH2 0xB09 JUMP JUMPDEST DUP3 SLOAD PUSH2 0xAD7 JUMP JUMPDEST SWAP1 SSTORE JUMP JUMPDEST SWAP1 SWAP3 DUP2 PUSH2 0xB49 PUSH2 0xB43 PUSH2 0xB3E PUSH0 PUSH2 0x9B6 JUMP JUMPDEST PUSH2 0x19A JUMP JUMPDEST SWAP2 PUSH2 0x19A JUMP JUMPDEST EQ PUSH2 0xC14 JUMPI DUP4 PUSH2 0xB69 PUSH2 0xB63 PUSH2 0xB5E PUSH0 PUSH2 0x9B6 JUMP JUMPDEST PUSH2 0x19A JUMP JUMPDEST SWAP2 PUSH2 0x19A JUMP JUMPDEST EQ PUSH2 0xBED JUMPI PUSH2 0xB8D DUP4 PUSH2 0xB88 PUSH2 0xB81 PUSH1 0x1 DUP7 SWAP1 PUSH2 0x85F JUMP JUMPDEST DUP8 SWAP1 PUSH2 0x7F3 JUMP JUMPDEST PUSH2 0xB0C JUMP JUMPDEST PUSH2 0xB97 JUMPI JUMPDEST POP POP POP JUMP JUMPDEST SWAP2 SWAP1 SWAP2 PUSH2 0xBE2 PUSH2 0xBD0 PUSH2 0xBCA PUSH32 0x8C5BE1E5EBEC7D5BD14F71427D1E84F3DD0314C0F7B2291E5B200AC8C7C3B925 SWAP4 PUSH2 0x7E7 JUMP JUMPDEST SWAP4 PUSH2 0x7E7 JUMP JUMPDEST SWAP4 PUSH2 0xBD9 PUSH2 0xD2 JUMP JUMPDEST SWAP2 DUP3 SWAP2 DUP3 PUSH2 0x286 JUMP JUMPDEST SUB SWAP1 LOG3 PUSH0 DUP1 DUP1 PUSH2 0xB92 JUMP JUMPDEST PUSH2 0xC10 PUSH2 0xBF9 PUSH0 PUSH2 0x9B6 JUMP JUMPDEST PUSH0 SWAP2 DUP3 SWAP2 PUSH4 0x4A1406B1 PUSH1 0xE1 SHL DUP4 MSTORE PUSH1 0x4 DUP4 ADD PUSH2 0x9C2 JUMP JUMPDEST SUB SWAP1 REVERT JUMPDEST PUSH2 0xC37 PUSH2 0xC20 PUSH0 PUSH2 0x9B6 JUMP JUMPDEST PUSH0 SWAP2 DUP3 SWAP2 PUSH4 0xE602DF05 PUSH1 0xE0 SHL DUP4 MSTORE PUSH1 0x4 DUP4 ADD PUSH2 0x9C2 JUMP JUMPDEST SUB SWAP1 REVERT JUMPDEST PUSH4 0x4E487B71 PUSH1 0xE0 SHL PUSH0 MSTORE PUSH1 0x11 PUSH1 0x4 MSTORE PUSH1 0x24 PUSH0 REVERT JUMPDEST PUSH2 0xC5E PUSH2 0xC64 SWAP2 SWAP4 SWAP3 SWAP4 PUSH2 0x1C9 JUMP JUMPDEST SWAP3 PUSH2 0x1C9 JUMP JUMPDEST DUP3 ADD DUP1 SWAP3 GT PUSH2 0xC6F JUMPI JUMP JUMPDEST PUSH2 0xC3B JUMP JUMPDEST SWAP1 PUSH2 0xC7F SWAP2 ADD PUSH2 0x1C9 JUMP JUMPDEST SWAP1 JUMP JUMPDEST SWAP2 SWAP1 SWAP2 DUP1 PUSH2 0xCA0 PUSH2 0xC9A PUSH2 0xC95 PUSH0 PUSH2 0x9B6 JUMP JUMPDEST PUSH2 0x19A JUMP JUMPDEST SWAP2 PUSH2 0x19A JUMP JUMPDEST EQ PUSH0 EQ PUSH2 0xD81 JUMPI PUSH2 0xCC4 PUSH2 0xCBD DUP4 PUSH2 0xCB8 PUSH1 0x2 PUSH2 0x728 JUMP JUMPDEST PUSH2 0xC4F JUMP JUMPDEST PUSH1 0x2 PUSH2 0xB0C JUMP JUMPDEST JUMPDEST DUP3 PUSH2 0xCE0 PUSH2 0xCDA PUSH2 0xCD5 PUSH0 PUSH2 0x9B6 JUMP JUMPDEST PUSH2 0x19A JUMP JUMPDEST SWAP2 PUSH2 0x19A JUMP JUMPDEST EQ PUSH0 EQ PUSH2 0xD55 JUMPI PUSH2 0xD04 PUSH2 0xCFD DUP4 PUSH2 0xCF8 PUSH1 0x2 PUSH2 0x728 JUMP JUMPDEST PUSH2 0x8FD JUMP JUMPDEST PUSH1 0x2 PUSH2 0xB0C JUMP JUMPDEST JUMPDEST SWAP2 SWAP1 SWAP2 PUSH2 0xD50 PUSH2 0xD3E PUSH2 0xD38 PUSH32 0xDDF252AD1BE2C89B69C2B068FC378DAA952BA7F163C4A11628F55A4DF523B3EF SWAP4 PUSH2 0x7E7 JUMP JUMPDEST SWAP4 PUSH2 0x7E7 JUMP JUMPDEST SWAP4 PUSH2 0xD47 PUSH2 0xD2 JUMP JUMPDEST SWAP2 DUP3 SWAP2 DUP3 PUSH2 0x286 JUMP JUMPDEST SUB SWAP1 LOG3 JUMP JUMPDEST PUSH2 0xD7C DUP3 PUSH2 0xD76 PUSH2 0xD67 PUSH0 DUP8 SWAP1 PUSH2 0x7F3 JUMP JUMPDEST SWAP2 PUSH2 0xD71 DUP4 PUSH2 0x728 JUMP JUMPDEST PUSH2 0xC74 JUMP JUMPDEST SWAP1 PUSH2 0xB0C JUMP JUMPDEST PUSH2 0xD05 JUMP JUMPDEST PUSH2 0xD94 PUSH2 0xD8F PUSH0 DUP4 SWAP1 PUSH2 0x7F3 JUMP JUMPDEST PUSH2 0x728 JUMP JUMPDEST DUP1 PUSH2 0xDA7 PUSH2 0xDA1 DUP6 PUSH2 0x1C9 JUMP JUMPDEST SWAP2 PUSH2 0x1C9 JUMP JUMPDEST LT PUSH2 0xDCF JUMPI PUSH2 0xDBA PUSH2 0xDCA SWAP2 DUP5 SWAP1 PUSH2 0x8FD JUMP JUMPDEST PUSH2 0xDC5 PUSH0 DUP5 SWAP1 PUSH2 0x7F3 JUMP JUMPDEST PUSH2 0xB0C JUMP JUMPDEST PUSH2 0xCC5 JUMP JUMPDEST SWAP1 PUSH2 0xDED SWAP1 SWAP2 SWAP3 PUSH0 SWAP4 DUP5 SWAP4 PUSH4 0x391434E3 PUSH1 0xE2 SHL DUP6 MSTORE PUSH1 0x4 DUP6 ADD PUSH2 0x8CB JUMP JUMPDEST SUB SWAP1 REVERT INVALID LOG2 PUSH5 0x6970667358 0x22 SLT KECCAK256 GAS PUSH27 0x6B9CF02214717B48FDFF10CBCC3D272822E0F6745A74B79B0486E3 0x23 CALLCODE SWAP8 PUSH5 0x736F6C6343 STOP ADDMOD SHR STOP CALLER "
        },
        "methodIdentifiers": {
          "INITIAL_SUPPLY()": "2ff2e9dc",
          "allowance(address,address)": "dd62ed3e",
          "approve(address,uint256)": "095ea7b3",
          "balanceOf(address)": "70a08231",
          "decimals()": "313ce567",
          "mint(address,uint256)": "40c10f19",
          "name()": "06fdde03",
          "symbol()": "95d89b41",
          "totalSupply()": "18160ddd",
          "transfer(address,uint256)": "a9059cbb",
          "transferFrom(address,address,uint256)": "23b872dd"
        }
      }
    }
  }
}